{
  "_format": "hh-sol-artifact-1",
  "contractName": "MyGovernor",
  "sourceName": "contracts/Governer.sol",
  "abi": [
    {
      "inputs": [
        {
          "internalType": "contract IVotes",
          "name": "_token",
          "type": "address"
        },
        {
          "internalType": "contract TimelockController",
          "name": "_timelock",
          "type": "address"
        }
      ],
      "stateMutability": "nonpayable",
      "type": "constructor"
    },
    {
      "inputs": [],
      "name": "CheckpointUnorderedInsertion",
      "type": "error"
    },
    {
      "inputs": [],
      "name": "FailedCall",
      "type": "error"
    },
    {
      "inputs": [
        {
          "internalType": "address",
          "name": "voter",
          "type": "address"
        }
      ],
      "name": "GovernorAlreadyCastVote",
      "type": "error"
    },
    {
      "inputs": [
        {
          "internalType": "uint256",
          "name": "proposalId",
          "type": "uint256"
        }
      ],
      "name": "GovernorAlreadyQueuedProposal",
      "type": "error"
    },
    {
      "inputs": [],
      "name": "GovernorDisabledDeposit",
      "type": "error"
    },
    {
      "inputs": [
        {
          "internalType": "address",
          "name": "proposer",
          "type": "address"
        },
        {
          "internalType": "uint256",
          "name": "votes",
          "type": "uint256"
        },
        {
          "internalType": "uint256",
          "name": "threshold",
          "type": "uint256"
        }
      ],
      "name": "GovernorInsufficientProposerVotes",
      "type": "error"
    },
    {
      "inputs": [
        {
          "internalType": "uint256",
          "name": "targets",
          "type": "uint256"
        },
        {
          "internalType": "uint256",
          "name": "calldatas",
          "type": "uint256"
        },
        {
          "internalType": "uint256",
          "name": "values",
          "type": "uint256"
        }
      ],
      "name": "GovernorInvalidProposalLength",
      "type": "error"
    },
    {
      "inputs": [
        {
          "internalType": "uint256",
          "name": "quorumNumerator",
          "type": "uint256"
        },
        {
          "internalType": "uint256",
          "name": "quorumDenominator",
          "type": "uint256"
        }
      ],
      "name": "GovernorInvalidQuorumFraction",
      "type": "error"
    },
    {
      "inputs": [
        {
          "internalType": "address",
          "name": "voter",
          "type": "address"
        }
      ],
      "name": "GovernorInvalidSignature",
      "type": "error"
    },
    {
      "inputs": [],
      "name": "GovernorInvalidVoteParams",
      "type": "error"
    },
    {
      "inputs": [],
      "name": "GovernorInvalidVoteType",
      "type": "error"
    },
    {
      "inputs": [
        {
          "internalType": "uint256",
          "name": "votingPeriod",
          "type": "uint256"
        }
      ],
      "name": "GovernorInvalidVotingPeriod",
      "type": "error"
    },
    {
      "inputs": [
        {
          "internalType": "uint256",
          "name": "proposalId",
          "type": "uint256"
        }
      ],
      "name": "GovernorNonexistentProposal",
      "type": "error"
    },
    {
      "inputs": [
        {
          "internalType": "uint256",
          "name": "proposalId",
          "type": "uint256"
        }
      ],
      "name": "GovernorNotQueuedProposal",
      "type": "error"
    },
    {
      "inputs": [
        {
          "internalType": "address",
          "name": "account",
          "type": "address"
        }
      ],
      "name": "GovernorOnlyExecutor",
      "type": "error"
    },
    {
      "inputs": [
        {
          "internalType": "address",
          "name": "account",
          "type": "address"
        }
      ],
      "name": "GovernorOnlyProposer",
      "type": "error"
    },
    {
      "inputs": [],
      "name": "GovernorQueueNotImplemented",
      "type": "error"
    },
    {
      "inputs": [
        {
          "internalType": "address",
          "name": "proposer",
          "type": "address"
        }
      ],
      "name": "GovernorRestrictedProposer",
      "type": "error"
    },
    {
      "inputs": [
        {
          "internalType": "uint256",
          "name": "proposalId",
          "type": "uint256"
        },
        {
          "internalType": "enum IGovernor.ProposalState",
          "name": "current",
          "type": "uint8"
        },
        {
          "internalType": "bytes32",
          "name": "expectedStates",
          "type": "bytes32"
        }
      ],
      "name": "GovernorUnexpectedProposalState",
      "type": "error"
    },
    {
      "inputs": [
        {
          "internalType": "address",
          "name": "account",
          "type": "address"
        },
        {
          "internalType": "uint256",
          "name": "currentNonce",
          "type": "uint256"
        }
      ],
      "name": "InvalidAccountNonce",
      "type": "error"
    },
    {
      "inputs": [],
      "name": "InvalidShortString",
      "type": "error"
    },
    {
      "inputs": [
        {
          "internalType": "uint8",
          "name": "bits",
          "type": "uint8"
        },
        {
          "internalType": "uint256",
          "name": "value",
          "type": "uint256"
        }
      ],
      "name": "SafeCastOverflowedUintDowncast",
      "type": "error"
    },
    {
      "inputs": [
        {
          "internalType": "string",
          "name": "str",
          "type": "string"
        }
      ],
      "name": "StringTooLong",
      "type": "error"
    },
    {
      "anonymous": false,
      "inputs": [],
      "name": "EIP712DomainChanged",
      "type": "event"
    },
    {
      "anonymous": false,
      "inputs": [
        {
          "indexed": false,
          "internalType": "uint256",
          "name": "proposalId",
          "type": "uint256"
        }
      ],
      "name": "ProposalCanceled",
      "type": "event"
    },
    {
      "anonymous": false,
      "inputs": [
        {
          "indexed": false,
          "internalType": "uint256",
          "name": "proposalId",
          "type": "uint256"
        },
        {
          "indexed": false,
          "internalType": "address",
          "name": "proposer",
          "type": "address"
        },
        {
          "indexed": false,
          "internalType": "address[]",
          "name": "targets",
          "type": "address[]"
        },
        {
          "indexed": false,
          "internalType": "uint256[]",
          "name": "values",
          "type": "uint256[]"
        },
        {
          "indexed": false,
          "internalType": "string[]",
          "name": "signatures",
          "type": "string[]"
        },
        {
          "indexed": false,
          "internalType": "bytes[]",
          "name": "calldatas",
          "type": "bytes[]"
        },
        {
          "indexed": false,
          "internalType": "uint256",
          "name": "voteStart",
          "type": "uint256"
        },
        {
          "indexed": false,
          "internalType": "uint256",
          "name": "voteEnd",
          "type": "uint256"
        },
        {
          "indexed": false,
          "internalType": "string",
          "name": "description",
          "type": "string"
        }
      ],
      "name": "ProposalCreated",
      "type": "event"
    },
    {
      "anonymous": false,
      "inputs": [
        {
          "indexed": false,
          "internalType": "uint256",
          "name": "proposalId",
          "type": "uint256"
        }
      ],
      "name": "ProposalExecuted",
      "type": "event"
    },
    {
      "anonymous": false,
      "inputs": [
        {
          "indexed": false,
          "internalType": "uint256",
          "name": "proposalId",
          "type": "uint256"
        },
        {
          "indexed": false,
          "internalType": "uint256",
          "name": "etaSeconds",
          "type": "uint256"
        }
      ],
      "name": "ProposalQueued",
      "type": "event"
    },
    {
      "anonymous": false,
      "inputs": [
        {
          "indexed": false,
          "internalType": "uint256",
          "name": "oldQuorumNumerator",
          "type": "uint256"
        },
        {
          "indexed": false,
          "internalType": "uint256",
          "name": "newQuorumNumerator",
          "type": "uint256"
        }
      ],
      "name": "QuorumNumeratorUpdated",
      "type": "event"
    },
    {
      "anonymous": false,
      "inputs": [
        {
          "indexed": false,
          "internalType": "address",
          "name": "oldTimelock",
          "type": "address"
        },
        {
          "indexed": false,
          "internalType": "address",
          "name": "newTimelock",
          "type": "address"
        }
      ],
      "name": "TimelockChange",
      "type": "event"
    },
    {
      "anonymous": false,
      "inputs": [
        {
          "indexed": true,
          "internalType": "address",
          "name": "voter",
          "type": "address"
        },
        {
          "indexed": false,
          "internalType": "uint256",
          "name": "proposalId",
          "type": "uint256"
        },
        {
          "indexed": false,
          "internalType": "uint8",
          "name": "support",
          "type": "uint8"
        },
        {
          "indexed": false,
          "internalType": "uint256",
          "name": "weight",
          "type": "uint256"
        },
        {
          "indexed": false,
          "internalType": "string",
          "name": "reason",
          "type": "string"
        }
      ],
      "name": "VoteCast",
      "type": "event"
    },
    {
      "anonymous": false,
      "inputs": [
        {
          "indexed": true,
          "internalType": "address",
          "name": "voter",
          "type": "address"
        },
        {
          "indexed": false,
          "internalType": "uint256",
          "name": "proposalId",
          "type": "uint256"
        },
        {
          "indexed": false,
          "internalType": "uint8",
          "name": "support",
          "type": "uint8"
        },
        {
          "indexed": false,
          "internalType": "uint256",
          "name": "weight",
          "type": "uint256"
        },
        {
          "indexed": false,
          "internalType": "string",
          "name": "reason",
          "type": "string"
        },
        {
          "indexed": false,
          "internalType": "bytes",
          "name": "params",
          "type": "bytes"
        }
      ],
      "name": "VoteCastWithParams",
      "type": "event"
    },
    {
      "inputs": [],
      "name": "BALLOT_TYPEHASH",
      "outputs": [
        {
          "internalType": "bytes32",
          "name": "",
          "type": "bytes32"
        }
      ],
      "stateMutability": "view",
      "type": "function"
    },
    {
      "inputs": [],
      "name": "CLOCK_MODE",
      "outputs": [
        {
          "internalType": "string",
          "name": "",
          "type": "string"
        }
      ],
      "stateMutability": "view",
      "type": "function"
    },
    {
      "inputs": [],
      "name": "COUNTING_MODE",
      "outputs": [
        {
          "internalType": "string",
          "name": "",
          "type": "string"
        }
      ],
      "stateMutability": "pure",
      "type": "function"
    },
    {
      "inputs": [],
      "name": "EXTENDED_BALLOT_TYPEHASH",
      "outputs": [
        {
          "internalType": "bytes32",
          "name": "",
          "type": "bytes32"
        }
      ],
      "stateMutability": "view",
      "type": "function"
    },
    {
      "inputs": [
        {
          "internalType": "address[]",
          "name": "targets",
          "type": "address[]"
        },
        {
          "internalType": "uint256[]",
          "name": "values",
          "type": "uint256[]"
        },
        {
          "internalType": "bytes[]",
          "name": "calldatas",
          "type": "bytes[]"
        },
        {
          "internalType": "bytes32",
          "name": "descriptionHash",
          "type": "bytes32"
        }
      ],
      "name": "cancel",
      "outputs": [
        {
          "internalType": "uint256",
          "name": "",
          "type": "uint256"
        }
      ],
      "stateMutability": "nonpayable",
      "type": "function"
    },
    {
      "inputs": [
        {
          "internalType": "uint256",
          "name": "proposalId",
          "type": "uint256"
        },
        {
          "internalType": "uint8",
          "name": "support",
          "type": "uint8"
        }
      ],
      "name": "castVote",
      "outputs": [
        {
          "internalType": "uint256",
          "name": "",
          "type": "uint256"
        }
      ],
      "stateMutability": "nonpayable",
      "type": "function"
    },
    {
      "inputs": [
        {
          "internalType": "uint256",
          "name": "proposalId",
          "type": "uint256"
        },
        {
          "internalType": "uint8",
          "name": "support",
          "type": "uint8"
        },
        {
          "internalType": "address",
          "name": "voter",
          "type": "address"
        },
        {
          "internalType": "bytes",
          "name": "signature",
          "type": "bytes"
        }
      ],
      "name": "castVoteBySig",
      "outputs": [
        {
          "internalType": "uint256",
          "name": "",
          "type": "uint256"
        }
      ],
      "stateMutability": "nonpayable",
      "type": "function"
    },
    {
      "inputs": [
        {
          "internalType": "uint256",
          "name": "proposalId",
          "type": "uint256"
        },
        {
          "internalType": "uint8",
          "name": "support",
          "type": "uint8"
        },
        {
          "internalType": "string",
          "name": "reason",
          "type": "string"
        }
      ],
      "name": "castVoteWithReason",
      "outputs": [
        {
          "internalType": "uint256",
          "name": "",
          "type": "uint256"
        }
      ],
      "stateMutability": "nonpayable",
      "type": "function"
    },
    {
      "inputs": [
        {
          "internalType": "uint256",
          "name": "proposalId",
          "type": "uint256"
        },
        {
          "internalType": "uint8",
          "name": "support",
          "type": "uint8"
        },
        {
          "internalType": "string",
          "name": "reason",
          "type": "string"
        },
        {
          "internalType": "bytes",
          "name": "params",
          "type": "bytes"
        }
      ],
      "name": "castVoteWithReasonAndParams",
      "outputs": [
        {
          "internalType": "uint256",
          "name": "",
          "type": "uint256"
        }
      ],
      "stateMutability": "nonpayable",
      "type": "function"
    },
    {
      "inputs": [
        {
          "internalType": "uint256",
          "name": "proposalId",
          "type": "uint256"
        },
        {
          "internalType": "uint8",
          "name": "support",
          "type": "uint8"
        },
        {
          "internalType": "address",
          "name": "voter",
          "type": "address"
        },
        {
          "internalType": "string",
          "name": "reason",
          "type": "string"
        },
        {
          "internalType": "bytes",
          "name": "params",
          "type": "bytes"
        },
        {
          "internalType": "bytes",
          "name": "signature",
          "type": "bytes"
        }
      ],
      "name": "castVoteWithReasonAndParamsBySig",
      "outputs": [
        {
          "internalType": "uint256",
          "name": "",
          "type": "uint256"
        }
      ],
      "stateMutability": "nonpayable",
      "type": "function"
    },
    {
      "inputs": [],
      "name": "clock",
      "outputs": [
        {
          "internalType": "uint48",
          "name": "",
          "type": "uint48"
        }
      ],
      "stateMutability": "view",
      "type": "function"
    },
    {
      "inputs": [],
      "name": "eip712Domain",
      "outputs": [
        {
          "internalType": "bytes1",
          "name": "fields",
          "type": "bytes1"
        },
        {
          "internalType": "string",
          "name": "name",
          "type": "string"
        },
        {
          "internalType": "string",
          "name": "version",
          "type": "string"
        },
        {
          "internalType": "uint256",
          "name": "chainId",
          "type": "uint256"
        },
        {
          "internalType": "address",
          "name": "verifyingContract",
          "type": "address"
        },
        {
          "internalType": "bytes32",
          "name": "salt",
          "type": "bytes32"
        },
        {
          "internalType": "uint256[]",
          "name": "extensions",
          "type": "uint256[]"
        }
      ],
      "stateMutability": "view",
      "type": "function"
    },
    {
      "inputs": [
        {
          "internalType": "address[]",
          "name": "targets",
          "type": "address[]"
        },
        {
          "internalType": "uint256[]",
          "name": "values",
          "type": "uint256[]"
        },
        {
          "internalType": "bytes[]",
          "name": "calldatas",
          "type": "bytes[]"
        },
        {
          "internalType": "bytes32",
          "name": "descriptionHash",
          "type": "bytes32"
        }
      ],
      "name": "execute",
      "outputs": [
        {
          "internalType": "uint256",
          "name": "",
          "type": "uint256"
        }
      ],
      "stateMutability": "payable",
      "type": "function"
    },
    {
      "inputs": [
        {
          "internalType": "address",
          "name": "account",
          "type": "address"
        },
        {
          "internalType": "uint256",
          "name": "timepoint",
          "type": "uint256"
        }
      ],
      "name": "getVotes",
      "outputs": [
        {
          "internalType": "uint256",
          "name": "",
          "type": "uint256"
        }
      ],
      "stateMutability": "view",
      "type": "function"
    },
    {
      "inputs": [
        {
          "internalType": "address",
          "name": "account",
          "type": "address"
        },
        {
          "internalType": "uint256",
          "name": "timepoint",
          "type": "uint256"
        },
        {
          "internalType": "bytes",
          "name": "params",
          "type": "bytes"
        }
      ],
      "name": "getVotesWithParams",
      "outputs": [
        {
          "internalType": "uint256",
          "name": "",
          "type": "uint256"
        }
      ],
      "stateMutability": "view",
      "type": "function"
    },
    {
      "inputs": [
        {
          "internalType": "uint256",
          "name": "proposalId",
          "type": "uint256"
        },
        {
          "internalType": "address",
          "name": "account",
          "type": "address"
        }
      ],
      "name": "hasVoted",
      "outputs": [
        {
          "internalType": "bool",
          "name": "",
          "type": "bool"
        }
      ],
      "stateMutability": "view",
      "type": "function"
    },
    {
      "inputs": [
        {
          "internalType": "address[]",
          "name": "targets",
          "type": "address[]"
        },
        {
          "internalType": "uint256[]",
          "name": "values",
          "type": "uint256[]"
        },
        {
          "internalType": "bytes[]",
          "name": "calldatas",
          "type": "bytes[]"
        },
        {
          "internalType": "bytes32",
          "name": "descriptionHash",
          "type": "bytes32"
        }
      ],
      "name": "hashProposal",
      "outputs": [
        {
          "internalType": "uint256",
          "name": "",
          "type": "uint256"
        }
      ],
      "stateMutability": "pure",
      "type": "function"
    },
    {
      "inputs": [],
      "name": "name",
      "outputs": [
        {
          "internalType": "string",
          "name": "",
          "type": "string"
        }
      ],
      "stateMutability": "view",
      "type": "function"
    },
    {
      "inputs": [
        {
          "internalType": "address",
          "name": "owner",
          "type": "address"
        }
      ],
      "name": "nonces",
      "outputs": [
        {
          "internalType": "uint256",
          "name": "",
          "type": "uint256"
        }
      ],
      "stateMutability": "view",
      "type": "function"
    },
    {
      "inputs": [
        {
          "internalType": "address",
          "name": "",
          "type": "address"
        },
        {
          "internalType": "address",
          "name": "",
          "type": "address"
        },
        {
          "internalType": "uint256[]",
          "name": "",
          "type": "uint256[]"
        },
        {
          "internalType": "uint256[]",
          "name": "",
          "type": "uint256[]"
        },
        {
          "internalType": "bytes",
          "name": "",
          "type": "bytes"
        }
      ],
      "name": "onERC1155BatchReceived",
      "outputs": [
        {
          "internalType": "bytes4",
          "name": "",
          "type": "bytes4"
        }
      ],
      "stateMutability": "nonpayable",
      "type": "function"
    },
    {
      "inputs": [
        {
          "internalType": "address",
          "name": "",
          "type": "address"
        },
        {
          "internalType": "address",
          "name": "",
          "type": "address"
        },
        {
          "internalType": "uint256",
          "name": "",
          "type": "uint256"
        },
        {
          "internalType": "uint256",
          "name": "",
          "type": "uint256"
        },
        {
          "internalType": "bytes",
          "name": "",
          "type": "bytes"
        }
      ],
      "name": "onERC1155Received",
      "outputs": [
        {
          "internalType": "bytes4",
          "name": "",
          "type": "bytes4"
        }
      ],
      "stateMutability": "nonpayable",
      "type": "function"
    },
    {
      "inputs": [
        {
          "internalType": "address",
          "name": "",
          "type": "address"
        },
        {
          "internalType": "address",
          "name": "",
          "type": "address"
        },
        {
          "internalType": "uint256",
          "name": "",
          "type": "uint256"
        },
        {
          "internalType": "bytes",
          "name": "",
          "type": "bytes"
        }
      ],
      "name": "onERC721Received",
      "outputs": [
        {
          "internalType": "bytes4",
          "name": "",
          "type": "bytes4"
        }
      ],
      "stateMutability": "nonpayable",
      "type": "function"
    },
    {
      "inputs": [
        {
          "internalType": "uint256",
          "name": "proposalId",
          "type": "uint256"
        }
      ],
      "name": "proposalDeadline",
      "outputs": [
        {
          "internalType": "uint256",
          "name": "",
          "type": "uint256"
        }
      ],
      "stateMutability": "view",
      "type": "function"
    },
    {
      "inputs": [
        {
          "internalType": "uint256",
          "name": "proposalId",
          "type": "uint256"
        }
      ],
      "name": "proposalEta",
      "outputs": [
        {
          "internalType": "uint256",
          "name": "",
          "type": "uint256"
        }
      ],
      "stateMutability": "view",
      "type": "function"
    },
    {
      "inputs": [
        {
          "internalType": "uint256",
          "name": "proposalId",
          "type": "uint256"
        }
      ],
      "name": "proposalNeedsQueuing",
      "outputs": [
        {
          "internalType": "bool",
          "name": "",
          "type": "bool"
        }
      ],
      "stateMutability": "view",
      "type": "function"
    },
    {
      "inputs": [
        {
          "internalType": "uint256",
          "name": "proposalId",
          "type": "uint256"
        }
      ],
      "name": "proposalProposer",
      "outputs": [
        {
          "internalType": "address",
          "name": "",
          "type": "address"
        }
      ],
      "stateMutability": "view",
      "type": "function"
    },
    {
      "inputs": [
        {
          "internalType": "uint256",
          "name": "proposalId",
          "type": "uint256"
        }
      ],
      "name": "proposalSnapshot",
      "outputs": [
        {
          "internalType": "uint256",
          "name": "",
          "type": "uint256"
        }
      ],
      "stateMutability": "view",
      "type": "function"
    },
    {
      "inputs": [],
      "name": "proposalThreshold",
      "outputs": [
        {
          "internalType": "uint256",
          "name": "",
          "type": "uint256"
        }
      ],
      "stateMutability": "pure",
      "type": "function"
    },
    {
      "inputs": [
        {
          "internalType": "uint256",
          "name": "proposalId",
          "type": "uint256"
        }
      ],
      "name": "proposalVotes",
      "outputs": [
        {
          "internalType": "uint256",
          "name": "againstVotes",
          "type": "uint256"
        },
        {
          "internalType": "uint256",
          "name": "forVotes",
          "type": "uint256"
        },
        {
          "internalType": "uint256",
          "name": "abstainVotes",
          "type": "uint256"
        }
      ],
      "stateMutability": "view",
      "type": "function"
    },
    {
      "inputs": [
        {
          "internalType": "address[]",
          "name": "targets",
          "type": "address[]"
        },
        {
          "internalType": "uint256[]",
          "name": "values",
          "type": "uint256[]"
        },
        {
          "internalType": "bytes[]",
          "name": "calldatas",
          "type": "bytes[]"
        },
        {
          "internalType": "string",
          "name": "description",
          "type": "string"
        }
      ],
      "name": "propose",
      "outputs": [
        {
          "internalType": "uint256",
          "name": "",
          "type": "uint256"
        }
      ],
      "stateMutability": "nonpayable",
      "type": "function"
    },
    {
      "inputs": [
        {
          "internalType": "address[]",
          "name": "targets",
          "type": "address[]"
        },
        {
          "internalType": "uint256[]",
          "name": "values",
          "type": "uint256[]"
        },
        {
          "internalType": "bytes[]",
          "name": "calldatas",
          "type": "bytes[]"
        },
        {
          "internalType": "bytes32",
          "name": "descriptionHash",
          "type": "bytes32"
        }
      ],
      "name": "queue",
      "outputs": [
        {
          "internalType": "uint256",
          "name": "",
          "type": "uint256"
        }
      ],
      "stateMutability": "nonpayable",
      "type": "function"
    },
    {
      "inputs": [
        {
          "internalType": "uint256",
          "name": "timepoint",
          "type": "uint256"
        }
      ],
      "name": "quorum",
      "outputs": [
        {
          "internalType": "uint256",
          "name": "",
          "type": "uint256"
        }
      ],
      "stateMutability": "view",
      "type": "function"
    },
    {
      "inputs": [],
      "name": "quorumDenominator",
      "outputs": [
        {
          "internalType": "uint256",
          "name": "",
          "type": "uint256"
        }
      ],
      "stateMutability": "view",
      "type": "function"
    },
    {
      "inputs": [
        {
          "internalType": "uint256",
          "name": "timepoint",
          "type": "uint256"
        }
      ],
      "name": "quorumNumerator",
      "outputs": [
        {
          "internalType": "uint256",
          "name": "",
          "type": "uint256"
        }
      ],
      "stateMutability": "view",
      "type": "function"
    },
    {
      "inputs": [],
      "name": "quorumNumerator",
      "outputs": [
        {
          "internalType": "uint256",
          "name": "",
          "type": "uint256"
        }
      ],
      "stateMutability": "view",
      "type": "function"
    },
    {
      "inputs": [
        {
          "internalType": "address",
          "name": "target",
          "type": "address"
        },
        {
          "internalType": "uint256",
          "name": "value",
          "type": "uint256"
        },
        {
          "internalType": "bytes",
          "name": "data",
          "type": "bytes"
        }
      ],
      "name": "relay",
      "outputs": [],
      "stateMutability": "payable",
      "type": "function"
    },
    {
      "inputs": [
        {
          "internalType": "uint256",
          "name": "proposalId",
          "type": "uint256"
        }
      ],
      "name": "state",
      "outputs": [
        {
          "internalType": "enum IGovernor.ProposalState",
          "name": "",
          "type": "uint8"
        }
      ],
      "stateMutability": "view",
      "type": "function"
    },
    {
      "inputs": [
        {
          "internalType": "bytes4",
          "name": "interfaceId",
          "type": "bytes4"
        }
      ],
      "name": "supportsInterface",
      "outputs": [
        {
          "internalType": "bool",
          "name": "",
          "type": "bool"
        }
      ],
      "stateMutability": "view",
      "type": "function"
    },
    {
      "inputs": [],
      "name": "timelock",
      "outputs": [
        {
          "internalType": "address",
          "name": "",
          "type": "address"
        }
      ],
      "stateMutability": "view",
      "type": "function"
    },
    {
      "inputs": [],
      "name": "token",
      "outputs": [
        {
          "internalType": "contract IERC5805",
          "name": "",
          "type": "address"
        }
      ],
      "stateMutability": "view",
      "type": "function"
    },
    {
      "inputs": [
        {
          "internalType": "uint256",
          "name": "newQuorumNumerator",
          "type": "uint256"
        }
      ],
      "name": "updateQuorumNumerator",
      "outputs": [],
      "stateMutability": "nonpayable",
      "type": "function"
    },
    {
      "inputs": [
        {
          "internalType": "contract TimelockController",
          "name": "newTimelock",
          "type": "address"
        }
      ],
      "name": "updateTimelock",
      "outputs": [],
      "stateMutability": "nonpayable",
      "type": "function"
    },
    {
      "inputs": [],
      "name": "version",
      "outputs": [
        {
          "internalType": "string",
          "name": "",
          "type": "string"
        }
      ],
      "stateMutability": "view",
      "type": "function"
    },
    {
      "inputs": [],
      "name": "votingDelay",
      "outputs": [
        {
          "internalType": "uint256",
          "name": "",
          "type": "uint256"
        }
      ],
      "stateMutability": "pure",
      "type": "function"
    },
    {
      "inputs": [],
      "name": "votingPeriod",
      "outputs": [
        {
          "internalType": "uint256",
          "name": "",
          "type": "uint256"
        }
      ],
      "stateMutability": "pure",
      "type": "function"
    },
    {
      "stateMutability": "payable",
      "type": "receive"
    }
  ],
  "bytecode": "0x6101806040523480156200001257600080fd5b50604051620047483803806200474883398101604081905262000035916200060c565b806004836040518060400160405280600a81526020016926bca3b7bb32b93737b960b11b815250806200006d6200015f60201b60201c565b6200007a8260006200017a565b610120526200008b8160016200017a565b61014052815160208084019190912060e052815190820120610100524660a0526200011960e05161010051604080517f8b73c3c69bb8fe3d512ecc4cf759cc79239f7b179b0ffacaa9a75d522b39400f60208201529081019290925260608201524660808201523060a082015260009060c00160405160208183030381529060405280519060200120905090565b60805250503060c0526003620001308282620006f0565b50506001600160a01b0316610160526200014a81620001b3565b50620001568162000257565b5050506200087d565b6040805180820190915260018152603160f81b602082015290565b60006020835110156200019a576200019283620002c0565b9050620001ad565b81620001a78482620006f0565b5060ff90505b92915050565b606480821115620001e65760405163243e544560e01b815260048101839052602481018290526044015b60405180910390fd5b6000620001f262000303565b905062000217620002026200031f565b6200020d85620003a1565b60089190620003db565b505060408051828152602081018590527f0553476bf02ef2726e8ce5ced78d63e26e602e4a2257b1f559418e24b4633997910160405180910390a1505050565b600954604080516001600160a01b03928316815291831660208301527f08f74ea46ef7894f65eabfb5e6e695de773a000b47c529ab559178069b226401910160405180910390a1600980546001600160a01b0319166001600160a01b0392909216919091179055565b600080829050601f81511115620002ee578260405163305a27a960e01b8152600401620001dd9190620007bc565b8051620002fb826200080c565b179392505050565b6000620003116008620003f8565b6001600160d01b0316905090565b60006200032c6101605190565b6001600160a01b03166391ddadf46040518163ffffffff1660e01b8152600401602060405180830381865afa92505050801562000388575060408051601f3d908101601f19168201909252620003859181019062000831565b60015b6200039c576200039762000448565b905090565b919050565b60006001600160d01b03821115620003d7576040516306dfcc6560e41b815260d0600482015260248101839052604401620001dd565b5090565b600080620003eb85858562000455565b915091505b935093915050565b805460009080156200043e576200042483620004166001846200085b565b600091825260209091200190565b54660100000000000090046001600160d01b031662000441565b60005b9392505050565b60006200039743620005be565b8254600090819080156200055f5760006200047787620004166001856200085b565b805490915065ffffffffffff80821691660100000000000090046001600160d01b0316908816821115620004be57604051632520601d60e01b815260040160405180910390fd5b8765ffffffffffff168265ffffffffffff1603620004fc57825465ffffffffffff1666010000000000006001600160d01b0389160217835562000550565b6040805180820190915265ffffffffffff808a1682526001600160d01b03808a1660208085019182528d54600181018f5560008f815291909120945191519092166601000000000000029216919091179101555b9450859350620003f092505050565b50506040805180820190915265ffffffffffff80851682526001600160d01b0380851660208085019182528854600181018a5560008a8152918220955192519093166601000000000000029190931617920191909155905081620003f0565b600065ffffffffffff821115620003d7576040516306dfcc6560e41b81526030600482015260248101839052604401620001dd565b6001600160a01b03811681146200060957600080fd5b50565b600080604083850312156200062057600080fd5b82516200062d81620005f3565b60208401519092506200064081620005f3565b809150509250929050565b634e487b7160e01b600052604160045260246000fd5b600181811c908216806200067657607f821691505b6020821081036200069757634e487b7160e01b600052602260045260246000fd5b50919050565b601f821115620006eb57600081815260208120601f850160051c81016020861015620006c65750805b601f850160051c820191505b81811015620006e757828155600101620006d2565b5050505b505050565b81516001600160401b038111156200070c576200070c6200064b565b62000724816200071d845462000661565b846200069d565b602080601f8311600181146200075c5760008415620007435750858301515b600019600386901b1c1916600185901b178555620006e7565b600085815260208120601f198616915b828110156200078d578886015182559484019460019091019084016200076c565b5085821015620007ac5787850151600019600388901b60f8161c191681555b5050505050600190811b01905550565b600060208083528351808285015260005b81811015620007eb57858101830151858201604001528201620007cd565b506000604082860101526040601f19601f8301168501019250505092915050565b80516020808301519190811015620006975760001960209190910360031b1b16919050565b6000602082840312156200084457600080fd5b815165ffffffffffff811681146200044157600080fd5b81810381811115620001ad57634e487b7160e01b600052601160045260246000fd5b60805160a05160c05160e05161010051610120516101405161016051613e65620008e3600039600061140e01526000611d4901526000611d1c015260006124420152600061241a015260006123750152600061239f015260006123c90152613e656000f3fe6080604052600436106102065760003560e01c806301ffc9a71461024257806302a251a31461027757806306f3f9e61461029557806306fdde03146102b5578063143489d0146102d7578063150b7a0214610304578063160cbed71461033d5780632656227d1461035d5780632d63f693146103705780632fe3e261146103905780633932abb1146102775780633e4f49e6146103b257806343859632146103df578063452115d6146104295780634bf5d7e914610449578063544ffc9c1461045e57806354fd4d50146104a757806356781388146104d15780635b8d0e0d146104f15780635f398a141461051157806360c4247f146105315780637b3c71d3146105515780637d5e81e2146105715780637ecebe001461059157806384b0196e146105c75780638ff262e3146105ef57806391ddadf41461060f57806397c3d3341461063b5780639a802a6d1461064f578063a7713a701461066f578063a890c91014610684578063a9a95294146106a4578063ab58fb8e146106c4578063b58131b0146106e4578063bc197c81146106f8578063c01f9e3714610718578063c28bc2fa14610738578063c59057e41461074b578063d33219b41461076b578063dd4e2ba514610780578063deaaa7cc146107c6578063eb9019d4146107e8578063f23a6e6114610808578063f8ce560a14610828578063fc0c546a1461084857600080fd5b3661023d573061021461085d565b6001600160a01b03161461023b57604051637485328f60e11b815260040160405180910390fd5b005b600080fd5b34801561024e57600080fd5b5061026261025d366004612d91565b61086c565b60405190151581526020015b60405180910390f35b34801561028357600080fd5b50600a5b60405190815260200161026e565b3480156102a157600080fd5b5061023b6102b0366004612dbb565b6108be565b3480156102c157600080fd5b506102ca6108d2565b60405161026e9190612e24565b3480156102e357600080fd5b506102f76102f2366004612dbb565b610964565b60405161026e9190612e37565b34801561031057600080fd5b5061032461031f366004612f2b565b61097f565b6040516001600160e01b0319909116815260200161026e565b34801561034957600080fd5b50610287610358366004613102565b6109c2565b61028761036b366004613102565b610a91565b34801561037c57600080fd5b5061028761038b366004612dbb565b610c05565b34801561039c57600080fd5b50610287600080516020613e1083398151915281565b3480156103be57600080fd5b506103d26103cd366004612dbb565b610c26565b60405161026e91906131c9565b3480156103eb57600080fd5b506102626103fa3660046131d7565b60008281526007602090815260408083206001600160a01b038516845260030190915290205460ff1692915050565b34801561043557600080fd5b50610287610444366004613102565b610c31565b34801561045557600080fd5b506102ca610cac565b34801561046a57600080fd5b50610498610479366004612dbb565b6000908152600760205260409020805460018201546002909201549092565b60405161026e93929190613207565b3480156104b357600080fd5b506040805180820190915260018152603160f81b60208201526102ca565b3480156104dd57600080fd5b506102876104ec36600461322e565b610d55565b3480156104fd57600080fd5b5061028761050c3660046132a2565b610d7e565b34801561051d57600080fd5b5061028761052c36600461335c565b610ea4565b34801561053d57600080fd5b5061028761054c366004612dbb565b610ef9565b34801561055d57600080fd5b5061028761056c3660046133df565b610f87565b34801561057d57600080fd5b5061028761058c366004613438565b610fcf565b34801561059d57600080fd5b506102876105ac3660046134ec565b6001600160a01b031660009081526002602052604090205490565b3480156105d357600080fd5b506105dc61100a565b60405161026e9796959493929190613544565b3480156105fb57600080fd5b5061028761060a3660046135b4565b611050565b34801561061b57600080fd5b506106246110e9565b60405165ffffffffffff909116815260200161026e565b34801561064757600080fd5b506064610287565b34801561065b57600080fd5b5061028761066a366004613605565b611158565b34801561067b57600080fd5b5061028761116f565b34801561069057600080fd5b5061023b61069f3660046134ec565b611189565b3480156106b057600080fd5b506102626106bf366004612dbb565b61119a565b3480156106d057600080fd5b506102876106df366004612dbb565b6111a3565b3480156106f057600080fd5b506000610287565b34801561070457600080fd5b5061032461071336600461365d565b6111c0565b34801561072457600080fd5b50610287610733366004612dbb565b611204565b61023b6107463660046136f0565b611247565b34801561075757600080fd5b50610287610766366004613102565b6112c7565b34801561077757600080fd5b506102f7611301565b34801561078c57600080fd5b506040805180820190915260208082527f737570706f72743d627261766f2671756f72756d3d666f722c6162737461696e908201526102ca565b3480156107d257600080fd5b50610287600080516020613df083398151915281565b3480156107f457600080fd5b50610287610803366004613733565b611310565b34801561081457600080fd5b5061032461082336600461375f565b611331565b34801561083457600080fd5b50610287610843366004612dbb565b611375565b34801561085457600080fd5b506102f761140c565b6000610867611301565b905090565b60006001600160e01b031982166332a2ad4360e11b148061089d57506001600160e01b03198216630271189760e51b145b806108b857506301ffc9a760e01b6001600160e01b03198316145b92915050565b6108c6611430565b6108cf816114aa565b50565b6060600380546108e1906137c7565b80601f016020809104026020016040519081016040528092919081815260200182805461090d906137c7565b801561095a5780601f1061092f5761010080835404028352916020019161095a565b820191906000526020600020905b81548152906001019060200180831161093d57829003601f168201915b5050505050905090565b6000908152600460205260409020546001600160a01b031690565b60003061098a61085d565b6001600160a01b0316146109b157604051637485328f60e11b815260040160405180910390fd5b50630a85bd0160e11b949350505050565b6000806109d1868686866112c7565b90506109e6816109e16004611540565b611563565b5060006109f682888888886115a2565b905065ffffffffffff811615610a6e57600082815260046020908152604091829020600101805465ffffffffffff191665ffffffffffff85169081179091558251858152918201527f9a2e42fd6722813d69113e7d0079d3d940171428df7373df9c7f7617cfda2892910160405180910390a1610a87565b604051634844252360e11b815260040160405180910390fd5b5095945050505050565b600080610aa0868686866112c7565b9050610ac081610ab06005611540565b610aba6004611540565b17611563565b506000818152600460205260409020805460ff60f01b1916600160f01b17905530610ae961085d565b6001600160a01b031614610b7b5760005b8651811015610b7957306001600160a01b0316878281518110610b1f57610b1f613801565b60200260200101516001600160a01b031603610b6957610b69858281518110610b4a57610b4a613801565b60200260200101518051906020012060056115b190919063ffffffff16565b610b728161382d565b9050610afa565b505b610b888187878787611613565b30610b9161085d565b6001600160a01b031614158015610bbd57506005546001600160801b03808216600160801b9092041614155b15610bc85760006005555b6040518181527f712ae1383f79ac853f8d882153778e0260ef8f03b504e2866e0593e04d2b291f906020015b60405180910390a195945050505050565b600090815260046020526040902054600160a01b900465ffffffffffff1690565b60006108b882611627565b600080610c40868686866112c7565b9050610c50816109e16000611540565b50610c5a81610964565b6001600160a01b0316336001600160a01b031614610c96573360405163233d98e360e01b8152600401610c8d9190612e37565b60405180910390fd5b610ca286868686611766565b9695505050505050565b6060610cb661140c565b6001600160a01b0316634bf5d7e96040518163ffffffff1660e01b8152600401600060405180830381865afa925050508015610d1457506040513d6000823e601f3d908101601f19168201604052610d119190810190613846565b60015b610d50575060408051808201909152601d81527f6d6f64653d626c6f636b6e756d6265722666726f6d3d64656661756c74000000602082015290565b919050565b600080339050610d768482856040518060200160405280600081525061177d565b949350505050565b600080610e3187610e2b600080516020613e108339815191528c8c8c610da38e6117a0565b8d8d604051610db39291906138b3565b60405180910390208c80519060200120604051602001610e109796959493929190968752602087019590955260ff9390931660408601526001600160a01b03919091166060850152608084015260a083015260c082015260e00190565b604051602081830303815290604052805190602001206117c3565b856117f0565b905080610e5357866040516394ab6c0760e01b8152600401610c8d9190612e37565b610e9789888a89898080601f0160208091040260200160405190810160405280939291908181526020018383808284376000920191909152508b9250611864915050565b9998505050505050505050565b600080339050610eee87828888888080601f0160208091040260200160405190810160405280939291908181526020018383808284376000920191909152508a9250611864915050565b979650505050505050565b600880546000918290610f0d6001846138c3565b81548110610f1d57610f1d613801565b6000918252602090912001805490915065ffffffffffff811690600160301b90046001600160d01b0316858211610f60576001600160d01b031695945050505050565b610f74610f6c87611946565b600890611978565b6001600160d01b03169695505050505050565b600080339050610ca286828787878080601f01602080910402602001604051908101604052809392919081815260200183838082843760009201919091525061177d92505050565b600033610fdc8184611a2d565b610ffb578060405163d9b3955760e01b8152600401610c8d9190612e37565b6000610eee8787878786611b1e565b60006060806000806000606061101e611d15565b611026611d42565b60408051600080825260208201909252600f60f81b9b939a50919850469750309650945092509050565b6000806110ac84610e2b600080516020613df08339815191528989896110758b6117a0565b60408051602081019690965285019390935260ff90911660608401526001600160a01b0316608083015260a082015260c001610e10565b9050806110ce57836040516394ab6c0760e01b8152600401610c8d9190612e37565b610ca28685876040518060200160405280600081525061177d565b60006110f361140c565b6001600160a01b03166391ddadf46040518163ffffffff1660e01b8152600401602060405180830381865afa92505050801561114c575060408051601f3d908101601f19168201909252611149918101906138dd565b60015b610d5057610867611d6f565b6000611165848484611d7a565b90505b9392505050565b600061117b6008611df7565b6001600160d01b0316905090565b611191611430565b6108cf81611e30565b600060016108b8565b60009081526004602052604090206001015465ffffffffffff1690565b6000306111cb61085d565b6001600160a01b0316146111f257604051637485328f60e11b815260040160405180910390fd5b5063bc197c8160e01b95945050505050565b60008181526004602052604081205461123990600160d01b810463ffffffff1690600160a01b900465ffffffffffff16613905565b65ffffffffffff1692915050565b61124f611430565b600080856001600160a01b031685858560405161126d9291906138b3565b60006040518083038185875af1925050503d80600081146112aa576040519150601f19603f3d011682016040523d82523d6000602084013e6112af565b606091505b50915091506112be8282611e99565b50505050505050565b6000848484846040516020016112e094939291906139b2565b60408051601f19818403018152919052805160209091012095945050505050565b6009546001600160a01b031690565b6000611168838361132c60408051602081019091526000815290565b611d7a565b60003061133c61085d565b6001600160a01b03161461136357604051637485328f60e11b815260040160405180910390fd5b5063f23a6e6160e01b95945050505050565b6000606461138283610ef9565b61138a61140c565b6001600160a01b0316638e539e8c856040518263ffffffff1660e01b81526004016113b791815260200190565b602060405180830381865afa1580156113d4573d6000803e3d6000fd5b505050506040513d601f19601f820116820180604052508101906113f891906139fd565b6114029190613a16565b6108b89190613a43565b7f000000000000000000000000000000000000000000000000000000000000000090565b3361143961085d565b6001600160a01b03161461146257336040516347096e4760e01b8152600401610c8d9190612e37565b3061146b61085d565b6001600160a01b0316146114a8576000803660405161148b9291906138b3565b604051809103902090505b806114a16005611eb5565b0361149657505b565b6064808211156114d75760405163243e544560e01b81526004810183905260248101829052604401610c8d565b60006114e161116f565b90506115006114ee6110e9565b6114f785611f1b565b60089190611f4a565b505060408051828152602081018590527f0553476bf02ef2726e8ce5ced78d63e26e602e4a2257b1f559418e24b4633997910160405180910390a1505050565b600081600781111561155457611554613191565b600160ff919091161b92915050565b60008061156f84610c26565b905060008361157d83611540565b1603611168578381846040516331b75e4d60e01b8152600401610c8d93929190613a65565b6000610ca28686868686611f65565b81546001600160801b03600160801b8204811691811660018301909116036115dd576115dd6041612104565b6001600160801b03808216600090815260018086016020526040909120939093558354919092018216600160801b029116179055565b6116208585858585612116565b5050505050565b600080611633836121a0565b9050600581600781111561164957611649613191565b146116545792915050565b6000838152600a602052604090819020546009549151632c258a9f60e11b81526004810182905290916001600160a01b03169063584b153e90602401602060405180830381865afa1580156116ad573d6000803e3d6000fd5b505050506040513d601f19601f820116820180604052508101906116d19190613a87565b156116e0575060059392505050565b600954604051632ab0f52960e01b8152600481018390526001600160a01b0390911690632ab0f52990602401602060405180830381865afa158015611729573d6000803e3d6000fd5b505050506040513d601f19601f8201168201806040525081019061174d9190613a87565b1561175c575060079392505050565b5060029392505050565b6000611774858585856122c9565b95945050505050565b60006117748585858561179b60408051602081019091526000815290565b611864565b6001600160a01b0316600090815260026020526040902080546001810190915590565b60006108b86117d0612368565b8360405161190160f01b8152600281019290925260228201526042902090565b6000836001600160a01b03163b600003611852576000806118118585612493565b509092509050600081600381111561182b5761182b613191565b1480156118495750856001600160a01b0316826001600160a01b0316145b92505050611168565b61185d8484846124e0565b9050611168565b6000611874866109e16001611540565b50600061188a8661188489610c05565b85611d7a565b9050600061189b88888885886125bb565b905083516000036118f257866001600160a01b03167fb8e138887d0aa13bab447e82de9d5c1777041ecd21ca36ba824ff1e6c07ddda4898884896040516118e59493929190613aa9565b60405180910390a2610eee565b866001600160a01b03167fe2babfbac5889a709b63bb7f598b324e08bc5a4fb9ec647fb3cbc9ec07eb87128988848989604051611933959493929190613ad1565b60405180910390a2979650505050505050565b600065ffffffffffff821115611974576030826040516306dfcc6560e41b8152600401610c8d929190613b0b565b5090565b8154600090818160058111156119d7576000611993846126b5565b61199d90856138c3565b60008881526020902090915081015465ffffffffffff90811690871610156119c7578091506119d5565b6119d2816001613b1e565b92505b505b60006119e587878585612808565b90508015611a2057611a0a876119fc6001846138c3565b600091825260209091200190565b54600160301b90046001600160d01b0316610eee565b6000979650505050505050565b80516000906034811015611a455760019150506108b8565b82810160131901516001600160a01b031981166b046e0e4dee0dee6cae47a60f60a31b14611a78576001925050506108b8565b600080611a866028856138c3565b90505b83811015611afd57600080611abd888481518110611aa957611aa9613801565b01602001516001600160f81b03191661286a565b9150915081611ad557600196505050505050506108b8565b8060ff166004856001600160a01b0316901b179350505080611af69061382d565b9050611a89565b50856001600160a01b0316816001600160a01b031614935050505092915050565b6000611b3386868686805190602001206112c7565b905084518651141580611b4857508351865114155b80611b5257508551155b15611b7957855184518651604051630447b05d60e41b8152600401610c8d93929190613207565b600081815260046020526040902054600160a01b900465ffffffffffff1615611bc45780611ba682610c26565b6040516331b75e4d60e01b8152610c8d929190600090600401613a65565b6000600a611bd06110e9565b65ffffffffffff16611be29190613b1e565b90506000600a600084815260046020526040902080546001600160a01b0319166001600160a01b038716178155909150611c1b83611946565b815465ffffffffffff91909116600160a01b0265ffffffffffff60a01b19909116178155611c48826128fc565b815463ffffffff91909116600160d01b0263ffffffff60d01b1990911617815588517f7d84a6263ae0d98d3329bd7b46bb4e8d6f98cd35a7adb45c274c8b7fd5ebd5e090859087908c908c906001600160401b03811115611cab57611cab612e60565b604051908082528060200260200182016040528015611cde57816020015b6060815260200190600190039081611cc95790505b508c89611ceb8a82613b1e565b8e604051611d0199989796959493929190613b31565b60405180910390a150505095945050505050565b60606108677f00000000000000000000000000000000000000000000000000000000000000006000612928565b60606108677f00000000000000000000000000000000000000000000000000000000000000006001612928565b600061086743611946565b6000611d8461140c565b604051630748d63560e31b81526001600160a01b038681166004830152602482018690529190911690633a46b1a890604401602060405180830381865afa158015611dd3573d6000803e3d6000fd5b505050506040513d601f19601f8201168201806040525081019061116591906139fd565b80546000908015611e2757611e11836119fc6001846138c3565b54600160301b90046001600160d01b0316611168565b60009392505050565b600954604080516001600160a01b03928316815291831660208301527f08f74ea46ef7894f65eabfb5e6e695de773a000b47c529ab559178069b226401910160405180910390a1600980546001600160a01b0319166001600160a01b0392909216919091179055565b606082611eae57611ea9826129d3565b6108b8565b50806108b8565b80546000906001600160801b0380821691600160801b9004168103611ede57611ede6031612104565b6001600160801b038181166000908152600185810160205260408220805492905585546001600160801b0319169301909116919091179092555090565b60006001600160d01b038211156119745760d0826040516306dfcc6560e41b8152600401610c8d929190613b0b565b600080611f588585856129fc565b915091505b935093915050565b600080600960009054906101000a90046001600160a01b03166001600160a01b031663f27a0c926040518163ffffffff1660e01b8152600401602060405180830381865afa158015611fbb573d6000803e3d6000fd5b505050506040513d601f19601f82011682018060405250810190611fdf91906139fd565b90506000611fec84612b50565b60095460405163b1c5f42760e01b81529192506001600160a01b03169063b1c5f42790612026908a908a908a906000908890600401613c08565b602060405180830381865afa158015612043573d6000803e3d6000fd5b505050506040513d601f19601f8201168201806040525081019061206791906139fd565b6000898152600a60205260408082209290925560095491516308f2a0bb60e41b81526001600160a01b0390921691638f2a0bb0916120b2918b918b918b919088908a90600401613c56565b600060405180830381600087803b1580156120cc57600080fd5b505af11580156120e0573d6000803e3d6000fd5b505050506120f882426120f39190613b1e565b611946565b98975050505050505050565b634e487b71600052806020526024601cfd5b6009546001600160a01b031663e38335e534868686600061213688612b50565b6040518763ffffffff1660e01b8152600401612156959493929190613c08565b6000604051808303818588803b15801561216f57600080fd5b505af1158015612183573d6000803e3d6000fd5b50505060009687525050600a602052505060408320929092555050565b6000818152600460205260408120805460ff600160f01b8204811691600160f81b90041681156121d557506007949350505050565b80156121e657506002949350505050565b60006121f186610c05565b90508060000361221757604051636ad0607560e01b815260048101879052602401610c8d565b60006122216110e9565b65ffffffffffff16905080821061223f575060009695505050505050565b600061224a88611204565b905081811061226157506001979650505050505050565b61226a88612b62565b158061228a57506000888152600760205260409020805460019091015411155b1561229d57506003979650505050505050565b6122a6886111a3565b6000036122bb57506004979650505050505050565b506005979650505050505050565b6000806122d886868686612b99565b6000818152600a60205260409020549091508015610a875760095460405163c4d252f560e01b8152600481018390526001600160a01b039091169063c4d252f590602401600060405180830381600087803b15801561233657600080fd5b505af115801561234a573d6000803e3d6000fd5b5050506000838152600a602052604081205550509050949350505050565b6000306001600160a01b037f0000000000000000000000000000000000000000000000000000000000000000161480156123c157507f000000000000000000000000000000000000000000000000000000000000000046145b156123eb57507f000000000000000000000000000000000000000000000000000000000000000090565b610867604080517f8b73c3c69bb8fe3d512ecc4cf759cc79239f7b179b0ffacaa9a75d522b39400f60208201527f0000000000000000000000000000000000000000000000000000000000000000918101919091527f000000000000000000000000000000000000000000000000000000000000000060608201524660808201523060a082015260009060c00160405160208183030381529060405280519060200120905090565b600080600083516041036124cd5760208401516040850151606086015160001a6124bf88828585612c4a565b9550955095505050506124d9565b50508151600091506002905b9250925092565b6000806000856001600160a01b03168585604051602401612502929190613cae565b60408051601f198184030181529181526020820180516001600160e01b0316630b135d3f60e11b179052516125379190613cc7565b600060405180830381855afa9150503d8060008114612572576040519150601f19603f3d011682016040523d82523d6000602084013e612577565b606091505b509150915081801561258b57506020815110155b8015610ca257508051630b135d3f60e11b906125b090830160209081019084016139fd565b149695505050505050565b60008581526007602090815260408083206001600160a01b03881684526003810190925282205460ff161561260557856040516371c6af4960e01b8152600401610c8d9190612e37565b6001600160a01b03861660009081526003820160205260409020805460ff1916600117905560ff851661265157838160000160008282546126469190613b1e565b909155506126aa9050565b60001960ff86160161267157838160010160008282546126469190613b1e565b60011960ff86160161269157838160020160008282546126469190613b1e565b6040516303599be160e11b815260040160405180910390fd5b509195945050505050565b6000600182116126c3575090565b816001600160801b82106126dc5760809190911c9060401b5b600160401b82106126f25760409190911c9060201b5b600160201b82106127085760209190911c9060101b5b62010000821061271d5760109190911c9060081b5b61010082106127315760089190911c9060041b5b601082106127445760049190911c9060021b5b600482106127505760011b5b600302600190811c9081858161276857612768613a2d565b048201901c9050600181858161278057612780613a2d565b048201901c9050600181858161279857612798613a2d565b048201901c905060018185816127b0576127b0613a2d565b048201901c905060018185816127c8576127c8613a2d565b048201901c905060018185816127e0576127e0613a2d565b048201901c90506127ff8185816127f9576127f9613a2d565b04821190565b90039392505050565b60005b8183101561286257600061281f8484612d0f565b60008781526020902090915065ffffffffffff86169082015465ffffffffffff16111561284e5780925061285c565b612859816001613b1e565b93505b5061280b565b509392505050565b60008060f883901c602f811180156128855750603a8160ff16105b1561289a57600194602f199091019350915050565b8060ff1660401080156128b0575060478160ff16105b156128c5576001946036199091019350915050565b8060ff1660601080156128db575060678160ff16105b156128f0576001946056199091019350915050565b50600093849350915050565b600063ffffffff821115611974576020826040516306dfcc6560e41b8152600401610c8d929190613b0b565b606060ff83146129425761293b83612d2a565b90506108b8565b81805461294e906137c7565b80601f016020809104026020016040519081016040528092919081815260200182805461297a906137c7565b80156129c75780601f1061299c576101008083540402835291602001916129c7565b820191906000526020600020905b8154815290600101906020018083116129aa57829003601f168201915b505050505090506108b8565b8051156129e35780518082602001fd5b60405163d6bda27560e01b815260040160405180910390fd5b825460009081908015612af5576000612a1a876119fc6001856138c3565b805490915065ffffffffffff80821691600160301b90046001600160d01b0316908816821115612a5d57604051632520601d60e01b815260040160405180910390fd5b8765ffffffffffff168265ffffffffffff1603612a9657825465ffffffffffff16600160301b6001600160d01b03891602178355612ae7565b6040805180820190915265ffffffffffff808a1682526001600160d01b03808a1660208085019182528d54600181018f5560008f81529190912094519151909216600160301b029216919091179101555b9450859350611f5d92505050565b50506040805180820190915265ffffffffffff80851682526001600160d01b0380851660208085019182528854600181018a5560008a815291822095519251909316600160301b029190931617920191909155905081611f5d565b6001600160601b03193060601b161890565b600081815260076020526040812060028101546001820154612b849190613b1e565b612b9061084385610c05565b11159392505050565b600080612ba8868686866112c7565b9050612bf681612bb86007611540565b612bc26006611540565b612bcc6002611540565b6001612bd9600782613ce3565b612be4906002613de0565b612bee91906138c3565b181818611563565b506000818152600460205260409081902080546001600160f81b0316600160f81b179055517f789cf55be980739dad1d0699b93b58e806b51c9d96619bfa8fe0a28abaa7b30c90610bf49083815260200190565b600080806fa2a8918ca85bafe22016d0b997e4df60600160ff1b03841115612c7b5750600091506003905082612d05565b604080516000808252602082018084528a905260ff891692820192909252606081018790526080810186905260019060a0016020604051602081039080840390855afa158015612ccf573d6000803e3d6000fd5b5050604051601f1901519150506001600160a01b038116612cfb57506000925060019150829050612d05565b9250600091508190505b9450945094915050565b6000612d1e6002848418613a43565b61116890848416613b1e565b60606000612d3783612d69565b604080516020808252818301909252919250600091906020820181803683375050509182525060208101929092525090565b600060ff8216601f8111156108b857604051632cd44ac360e21b815260040160405180910390fd5b600060208284031215612da357600080fd5b81356001600160e01b03198116811461116857600080fd5b600060208284031215612dcd57600080fd5b5035919050565b60005b83811015612def578181015183820152602001612dd7565b50506000910152565b60008151808452612e10816020860160208601612dd4565b601f01601f19169290920160200192915050565b6020815260006111686020830184612df8565b6001600160a01b0391909116815260200190565b6001600160a01b03811681146108cf57600080fd5b634e487b7160e01b600052604160045260246000fd5b604051601f8201601f191681016001600160401b0381118282101715612e9e57612e9e612e60565b604052919050565b60006001600160401b03821115612ebf57612ebf612e60565b50601f01601f191660200190565b6000612ee0612edb84612ea6565b612e76565b9050828152838383011115612ef457600080fd5b828260208301376000602084830101529392505050565b600082601f830112612f1c57600080fd5b61116883833560208501612ecd565b60008060008060808587031215612f4157600080fd5b8435612f4c81612e4b565b93506020850135612f5c81612e4b565b92506040850135915060608501356001600160401b03811115612f7e57600080fd5b612f8a87828801612f0b565b91505092959194509250565b60006001600160401b03821115612faf57612faf612e60565b5060051b60200190565b600082601f830112612fca57600080fd5b81356020612fda612edb83612f96565b82815260059290921b84018101918181019086841115612ff957600080fd5b8286015b8481101561301d57803561301081612e4b565b8352918301918301612ffd565b509695505050505050565b600082601f83011261303957600080fd5b81356020613049612edb83612f96565b82815260059290921b8401810191818101908684111561306857600080fd5b8286015b8481101561301d578035835291830191830161306c565b600082601f83011261309457600080fd5b813560206130a4612edb83612f96565b82815260059290921b840181019181810190868411156130c357600080fd5b8286015b8481101561301d5780356001600160401b038111156130e65760008081fd5b6130f48986838b0101612f0b565b8452509183019183016130c7565b6000806000806080858703121561311857600080fd5b84356001600160401b038082111561312f57600080fd5b61313b88838901612fb9565b9550602087013591508082111561315157600080fd5b61315d88838901613028565b9450604087013591508082111561317357600080fd5b5061318087828801613083565b949793965093946060013593505050565b634e487b7160e01b600052602160045260246000fd5b600881106131c557634e487b7160e01b600052602160045260246000fd5b9052565b602081016108b882846131a7565b600080604083850312156131ea57600080fd5b8235915060208301356131fc81612e4b565b809150509250929050565b9283526020830191909152604082015260600190565b803560ff81168114610d5057600080fd5b6000806040838503121561324157600080fd5b823591506132516020840161321d565b90509250929050565b60008083601f84011261326c57600080fd5b5081356001600160401b0381111561328357600080fd5b60208301915083602082850101111561329b57600080fd5b9250929050565b600080600080600080600060c0888a0312156132bd57600080fd5b873596506132cd6020890161321d565b955060408801356132dd81612e4b565b945060608801356001600160401b03808211156132f957600080fd5b6133058b838c0161325a565b909650945060808a013591508082111561331e57600080fd5b61332a8b838c01612f0b565b935060a08a013591508082111561334057600080fd5b5061334d8a828b01612f0b565b91505092959891949750929550565b60008060008060006080868803121561337457600080fd5b853594506133846020870161321d565b935060408601356001600160401b03808211156133a057600080fd5b6133ac89838a0161325a565b909550935060608801359150808211156133c557600080fd5b506133d288828901612f0b565b9150509295509295909350565b600080600080606085870312156133f557600080fd5b843593506134056020860161321d565b925060408501356001600160401b0381111561342057600080fd5b61342c8782880161325a565b95989497509550505050565b6000806000806080858703121561344e57600080fd5b84356001600160401b038082111561346557600080fd5b61347188838901612fb9565b9550602087013591508082111561348757600080fd5b61349388838901613028565b945060408701359150808211156134a957600080fd5b6134b588838901613083565b935060608701359150808211156134cb57600080fd5b508501601f810187136134dd57600080fd5b612f8a87823560208401612ecd565b6000602082840312156134fe57600080fd5b813561116881612e4b565b600081518084526020808501945080840160005b838110156135395781518752958201959082019060010161351d565b509495945050505050565b60ff60f81b8816815260e06020820152600061356360e0830189612df8565b82810360408401526135758189612df8565b606084018890526001600160a01b038716608085015260a0840186905283810360c085015290506135a68185613509565b9a9950505050505050505050565b600080600080608085870312156135ca57600080fd5b843593506135da6020860161321d565b925060408501356135ea81612e4b565b915060608501356001600160401b03811115612f7e57600080fd5b60008060006060848603121561361a57600080fd5b833561362581612e4b565b92506020840135915060408401356001600160401b0381111561364757600080fd5b61365386828701612f0b565b9150509250925092565b600080600080600060a0868803121561367557600080fd5b853561368081612e4b565b9450602086013561369081612e4b565b935060408601356001600160401b03808211156136ac57600080fd5b6136b889838a01613028565b945060608801359150808211156136ce57600080fd5b6136da89838a01613028565b935060808801359150808211156133c557600080fd5b6000806000806060858703121561370657600080fd5b843561371181612e4b565b93506020850135925060408501356001600160401b0381111561342057600080fd5b6000806040838503121561374657600080fd5b823561375181612e4b565b946020939093013593505050565b600080600080600060a0868803121561377757600080fd5b853561378281612e4b565b9450602086013561379281612e4b565b9350604086013592506060860135915060808601356001600160401b038111156137bb57600080fd5b6133d288828901612f0b565b600181811c908216806137db57607f821691505b6020821081036137fb57634e487b7160e01b600052602260045260246000fd5b50919050565b634e487b7160e01b600052603260045260246000fd5b634e487b7160e01b600052601160045260246000fd5b60006001820161383f5761383f613817565b5060010190565b60006020828403121561385857600080fd5b81516001600160401b0381111561386e57600080fd5b8201601f8101841361387f57600080fd5b805161388d612edb82612ea6565b8181528560208385010111156138a257600080fd5b611774826020830160208601612dd4565b8183823760009101908152919050565b818103818111156108b8576108b8613817565b5092915050565b6000602082840312156138ef57600080fd5b815165ffffffffffff8116811461116857600080fd5b65ffffffffffff8181168382160190808211156138d6576138d6613817565b600081518084526020808501945080840160005b838110156135395781516001600160a01b031687529582019590820190600101613938565b600081518084526020808501808196508360051b8101915082860160005b858110156139a5578284038952613993848351612df8565b9885019893509084019060010161397b565b5091979650505050505050565b6080815260006139c56080830187613924565b82810360208401526139d78187613509565b905082810360408401526139eb818661395d565b91505082606083015295945050505050565b600060208284031215613a0f57600080fd5b5051919050565b80820281158282048414176108b8576108b8613817565b634e487b7160e01b600052601260045260246000fd5b600082613a6057634e487b7160e01b600052601260045260246000fd5b500490565b83815260608101613a7960208301856131a7565b826040830152949350505050565b600060208284031215613a9957600080fd5b8151801515811461116857600080fd5b84815260ff84166020820152826040820152608060608201526000610ca26080830184612df8565b85815260ff8516602082015283604082015260a060608201526000613af960a0830185612df8565b82810360808401526120f88185612df8565b60ff929092168252602082015260400190565b808201808211156108b8576108b8613817565b60006101208b8352602060018060a01b038c1681850152816040850152613b5a8285018c613924565b91508382036060850152613b6e828b613509565b915083820360808501528189518084528284019150828160051b850101838c0160005b83811015613bbf57601f19878403018552613bad838351612df8565b94860194925090850190600101613b91565b505086810360a0880152613bd3818c61395d565b9450505050508560c08401528460e0840152828103610100840152613bf88185612df8565b9c9b505050505050505050505050565b60a081526000613c1b60a0830188613924565b8281036020840152613c2d8188613509565b90508281036040840152613c41818761395d565b60608401959095525050608001529392505050565b60c081526000613c6960c0830189613924565b8281036020840152613c7b8189613509565b90508281036040840152613c8f818861395d565b60608401969096525050608081019290925260a0909101529392505050565b8281526040602082015260006111656040830184612df8565b60008251613cd9818460208701612dd4565b9190910192915050565b60ff81811683821601908111156108b8576108b8613817565b600181815b80851115613d37578160001904821115613d1d57613d1d613817565b80851615613d2a57918102915b93841c9390800290613d01565b509250929050565b600082613d4e575060016108b8565b81613d5b575060006108b8565b8160018114613d715760028114613d7b57613d97565b60019150506108b8565b60ff841115613d8c57613d8c613817565b50506001821b6108b8565b5060208310610133831016604e8410600b8410161715613dba575081810a6108b8565b613dc48383613cfc565b8060001904821115613dd857613dd8613817565b029392505050565b600061116860ff841683613d3f56fef2aad550cf55f045cb27e9c559f9889fdfb6e6cdaa032301d6ea397784ae51d73e83946653575f9a39005e1545185629e92736b7528ab20ca3816f315424a811a2646970667358221220bd4cb80a5a5fad685bfa2436c07f2ea793a59d71a96765dd08c74678cadad3a664736f6c63430008140033",
  "linkReferences": {},
  "deployedLinkReferences": {}
}