{
  "_format": "hh-sol-artifact-1",
  "contractName": "GovToken",
  "sourceName": "contracts/Token.sol",
  "abi": [
    {
      "inputs": [
        {
          "internalType": "address",
          "name": "initialOwner",
          "type": "address"
        }
      ],
      "stateMutability": "nonpayable",
      "type": "constructor"
    },
    {
      "inputs": [],
      "name": "CheckpointUnorderedInsertion",
      "type": "error"
    },
    {
      "inputs": [],
      "name": "ECDSAInvalidSignature",
      "type": "error"
    },
    {
      "inputs": [
        {
          "internalType": "uint256",
          "name": "length",
          "type": "uint256"
        }
      ],
      "name": "ECDSAInvalidSignatureLength",
      "type": "error"
    },
    {
      "inputs": [
        {
          "internalType": "bytes32",
          "name": "s",
          "type": "bytes32"
        }
      ],
      "name": "ECDSAInvalidSignatureS",
      "type": "error"
    },
    {
      "inputs": [
        {
          "internalType": "uint256",
          "name": "increasedSupply",
          "type": "uint256"
        },
        {
          "internalType": "uint256",
          "name": "cap",
          "type": "uint256"
        }
      ],
      "name": "ERC20ExceededSafeSupply",
      "type": "error"
    },
    {
      "inputs": [
        {
          "internalType": "address",
          "name": "spender",
          "type": "address"
        },
        {
          "internalType": "uint256",
          "name": "allowance",
          "type": "uint256"
        },
        {
          "internalType": "uint256",
          "name": "needed",
          "type": "uint256"
        }
      ],
      "name": "ERC20InsufficientAllowance",
      "type": "error"
    },
    {
      "inputs": [
        {
          "internalType": "address",
          "name": "sender",
          "type": "address"
        },
        {
          "internalType": "uint256",
          "name": "balance",
          "type": "uint256"
        },
        {
          "internalType": "uint256",
          "name": "needed",
          "type": "uint256"
        }
      ],
      "name": "ERC20InsufficientBalance",
      "type": "error"
    },
    {
      "inputs": [
        {
          "internalType": "address",
          "name": "approver",
          "type": "address"
        }
      ],
      "name": "ERC20InvalidApprover",
      "type": "error"
    },
    {
      "inputs": [
        {
          "internalType": "address",
          "name": "receiver",
          "type": "address"
        }
      ],
      "name": "ERC20InvalidReceiver",
      "type": "error"
    },
    {
      "inputs": [
        {
          "internalType": "address",
          "name": "sender",
          "type": "address"
        }
      ],
      "name": "ERC20InvalidSender",
      "type": "error"
    },
    {
      "inputs": [
        {
          "internalType": "address",
          "name": "spender",
          "type": "address"
        }
      ],
      "name": "ERC20InvalidSpender",
      "type": "error"
    },
    {
      "inputs": [
        {
          "internalType": "uint256",
          "name": "deadline",
          "type": "uint256"
        }
      ],
      "name": "ERC2612ExpiredSignature",
      "type": "error"
    },
    {
      "inputs": [
        {
          "internalType": "address",
          "name": "signer",
          "type": "address"
        },
        {
          "internalType": "address",
          "name": "owner",
          "type": "address"
        }
      ],
      "name": "ERC2612InvalidSigner",
      "type": "error"
    },
    {
      "inputs": [
        {
          "internalType": "uint256",
          "name": "timepoint",
          "type": "uint256"
        },
        {
          "internalType": "uint48",
          "name": "clock",
          "type": "uint48"
        }
      ],
      "name": "ERC5805FutureLookup",
      "type": "error"
    },
    {
      "inputs": [],
      "name": "ERC6372InconsistentClock",
      "type": "error"
    },
    {
      "inputs": [
        {
          "internalType": "address",
          "name": "account",
          "type": "address"
        },
        {
          "internalType": "uint256",
          "name": "currentNonce",
          "type": "uint256"
        }
      ],
      "name": "InvalidAccountNonce",
      "type": "error"
    },
    {
      "inputs": [],
      "name": "InvalidShortString",
      "type": "error"
    },
    {
      "inputs": [
        {
          "internalType": "address",
          "name": "owner",
          "type": "address"
        }
      ],
      "name": "OwnableInvalidOwner",
      "type": "error"
    },
    {
      "inputs": [
        {
          "internalType": "address",
          "name": "account",
          "type": "address"
        }
      ],
      "name": "OwnableUnauthorizedAccount",
      "type": "error"
    },
    {
      "inputs": [
        {
          "internalType": "uint8",
          "name": "bits",
          "type": "uint8"
        },
        {
          "internalType": "uint256",
          "name": "value",
          "type": "uint256"
        }
      ],
      "name": "SafeCastOverflowedUintDowncast",
      "type": "error"
    },
    {
      "inputs": [
        {
          "internalType": "string",
          "name": "str",
          "type": "string"
        }
      ],
      "name": "StringTooLong",
      "type": "error"
    },
    {
      "inputs": [
        {
          "internalType": "uint256",
          "name": "expiry",
          "type": "uint256"
        }
      ],
      "name": "VotesExpiredSignature",
      "type": "error"
    },
    {
      "anonymous": false,
      "inputs": [
        {
          "indexed": true,
          "internalType": "address",
          "name": "owner",
          "type": "address"
        },
        {
          "indexed": true,
          "internalType": "address",
          "name": "spender",
          "type": "address"
        },
        {
          "indexed": false,
          "internalType": "uint256",
          "name": "value",
          "type": "uint256"
        }
      ],
      "name": "Approval",
      "type": "event"
    },
    {
      "anonymous": false,
      "inputs": [
        {
          "indexed": true,
          "internalType": "address",
          "name": "delegator",
          "type": "address"
        },
        {
          "indexed": true,
          "internalType": "address",
          "name": "fromDelegate",
          "type": "address"
        },
        {
          "indexed": true,
          "internalType": "address",
          "name": "toDelegate",
          "type": "address"
        }
      ],
      "name": "DelegateChanged",
      "type": "event"
    },
    {
      "anonymous": false,
      "inputs": [
        {
          "indexed": true,
          "internalType": "address",
          "name": "delegate",
          "type": "address"
        },
        {
          "indexed": false,
          "internalType": "uint256",
          "name": "previousVotes",
          "type": "uint256"
        },
        {
          "indexed": false,
          "internalType": "uint256",
          "name": "newVotes",
          "type": "uint256"
        }
      ],
      "name": "DelegateVotesChanged",
      "type": "event"
    },
    {
      "anonymous": false,
      "inputs": [],
      "name": "EIP712DomainChanged",
      "type": "event"
    },
    {
      "anonymous": false,
      "inputs": [
        {
          "indexed": true,
          "internalType": "address",
          "name": "previousOwner",
          "type": "address"
        },
        {
          "indexed": true,
          "internalType": "address",
          "name": "newOwner",
          "type": "address"
        }
      ],
      "name": "OwnershipTransferred",
      "type": "event"
    },
    {
      "anonymous": false,
      "inputs": [
        {
          "indexed": true,
          "internalType": "address",
          "name": "from",
          "type": "address"
        },
        {
          "indexed": true,
          "internalType": "address",
          "name": "to",
          "type": "address"
        },
        {
          "indexed": false,
          "internalType": "uint256",
          "name": "value",
          "type": "uint256"
        }
      ],
      "name": "Transfer",
      "type": "event"
    },
    {
      "inputs": [],
      "name": "CLOCK_MODE",
      "outputs": [
        {
          "internalType": "string",
          "name": "",
          "type": "string"
        }
      ],
      "stateMutability": "view",
      "type": "function"
    },
    {
      "inputs": [],
      "name": "DOMAIN_SEPARATOR",
      "outputs": [
        {
          "internalType": "bytes32",
          "name": "",
          "type": "bytes32"
        }
      ],
      "stateMutability": "view",
      "type": "function"
    },
    {
      "inputs": [
        {
          "internalType": "address",
          "name": "owner",
          "type": "address"
        },
        {
          "internalType": "address",
          "name": "spender",
          "type": "address"
        }
      ],
      "name": "allowance",
      "outputs": [
        {
          "internalType": "uint256",
          "name": "",
          "type": "uint256"
        }
      ],
      "stateMutability": "view",
      "type": "function"
    },
    {
      "inputs": [
        {
          "internalType": "address",
          "name": "spender",
          "type": "address"
        },
        {
          "internalType": "uint256",
          "name": "value",
          "type": "uint256"
        }
      ],
      "name": "approve",
      "outputs": [
        {
          "internalType": "bool",
          "name": "",
          "type": "bool"
        }
      ],
      "stateMutability": "nonpayable",
      "type": "function"
    },
    {
      "inputs": [
        {
          "internalType": "address",
          "name": "account",
          "type": "address"
        }
      ],
      "name": "balanceOf",
      "outputs": [
        {
          "internalType": "uint256",
          "name": "",
          "type": "uint256"
        }
      ],
      "stateMutability": "view",
      "type": "function"
    },
    {
      "inputs": [
        {
          "internalType": "address",
          "name": "account",
          "type": "address"
        },
        {
          "internalType": "uint32",
          "name": "pos",
          "type": "uint32"
        }
      ],
      "name": "checkpoints",
      "outputs": [
        {
          "components": [
            {
              "internalType": "uint48",
              "name": "_key",
              "type": "uint48"
            },
            {
              "internalType": "uint208",
              "name": "_value",
              "type": "uint208"
            }
          ],
          "internalType": "struct Checkpoints.Checkpoint208",
          "name": "",
          "type": "tuple"
        }
      ],
      "stateMutability": "view",
      "type": "function"
    },
    {
      "inputs": [],
      "name": "clock",
      "outputs": [
        {
          "internalType": "uint48",
          "name": "",
          "type": "uint48"
        }
      ],
      "stateMutability": "view",
      "type": "function"
    },
    {
      "inputs": [],
      "name": "decimals",
      "outputs": [
        {
          "internalType": "uint8",
          "name": "",
          "type": "uint8"
        }
      ],
      "stateMutability": "view",
      "type": "function"
    },
    {
      "inputs": [
        {
          "internalType": "address",
          "name": "delegatee",
          "type": "address"
        }
      ],
      "name": "delegate",
      "outputs": [],
      "stateMutability": "nonpayable",
      "type": "function"
    },
    {
      "inputs": [
        {
          "internalType": "address",
          "name": "delegatee",
          "type": "address"
        },
        {
          "internalType": "uint256",
          "name": "nonce",
          "type": "uint256"
        },
        {
          "internalType": "uint256",
          "name": "expiry",
          "type": "uint256"
        },
        {
          "internalType": "uint8",
          "name": "v",
          "type": "uint8"
        },
        {
          "internalType": "bytes32",
          "name": "r",
          "type": "bytes32"
        },
        {
          "internalType": "bytes32",
          "name": "s",
          "type": "bytes32"
        }
      ],
      "name": "delegateBySig",
      "outputs": [],
      "stateMutability": "nonpayable",
      "type": "function"
    },
    {
      "inputs": [
        {
          "internalType": "address",
          "name": "account",
          "type": "address"
        }
      ],
      "name": "delegates",
      "outputs": [
        {
          "internalType": "address",
          "name": "",
          "type": "address"
        }
      ],
      "stateMutability": "view",
      "type": "function"
    },
    {
      "inputs": [],
      "name": "eip712Domain",
      "outputs": [
        {
          "internalType": "bytes1",
          "name": "fields",
          "type": "bytes1"
        },
        {
          "internalType": "string",
          "name": "name",
          "type": "string"
        },
        {
          "internalType": "string",
          "name": "version",
          "type": "string"
        },
        {
          "internalType": "uint256",
          "name": "chainId",
          "type": "uint256"
        },
        {
          "internalType": "address",
          "name": "verifyingContract",
          "type": "address"
        },
        {
          "internalType": "bytes32",
          "name": "salt",
          "type": "bytes32"
        },
        {
          "internalType": "uint256[]",
          "name": "extensions",
          "type": "uint256[]"
        }
      ],
      "stateMutability": "view",
      "type": "function"
    },
    {
      "inputs": [],
      "name": "faucet",
      "outputs": [],
      "stateMutability": "nonpayable",
      "type": "function"
    },
    {
      "inputs": [
        {
          "internalType": "uint256",
          "name": "timepoint",
          "type": "uint256"
        }
      ],
      "name": "getPastTotalSupply",
      "outputs": [
        {
          "internalType": "uint256",
          "name": "",
          "type": "uint256"
        }
      ],
      "stateMutability": "view",
      "type": "function"
    },
    {
      "inputs": [
        {
          "internalType": "address",
          "name": "account",
          "type": "address"
        },
        {
          "internalType": "uint256",
          "name": "timepoint",
          "type": "uint256"
        }
      ],
      "name": "getPastVotes",
      "outputs": [
        {
          "internalType": "uint256",
          "name": "",
          "type": "uint256"
        }
      ],
      "stateMutability": "view",
      "type": "function"
    },
    {
      "inputs": [
        {
          "internalType": "address",
          "name": "account",
          "type": "address"
        }
      ],
      "name": "getVotes",
      "outputs": [
        {
          "internalType": "uint256",
          "name": "",
          "type": "uint256"
        }
      ],
      "stateMutability": "view",
      "type": "function"
    },
    {
      "inputs": [
        {
          "internalType": "address",
          "name": "to",
          "type": "address"
        },
        {
          "internalType": "uint256",
          "name": "amount",
          "type": "uint256"
        }
      ],
      "name": "mint",
      "outputs": [],
      "stateMutability": "nonpayable",
      "type": "function"
    },
    {
      "inputs": [],
      "name": "name",
      "outputs": [
        {
          "internalType": "string",
          "name": "",
          "type": "string"
        }
      ],
      "stateMutability": "view",
      "type": "function"
    },
    {
      "inputs": [
        {
          "internalType": "address",
          "name": "owner",
          "type": "address"
        }
      ],
      "name": "nonces",
      "outputs": [
        {
          "internalType": "uint256",
          "name": "",
          "type": "uint256"
        }
      ],
      "stateMutability": "view",
      "type": "function"
    },
    {
      "inputs": [
        {
          "internalType": "address",
          "name": "account",
          "type": "address"
        }
      ],
      "name": "numCheckpoints",
      "outputs": [
        {
          "internalType": "uint32",
          "name": "",
          "type": "uint32"
        }
      ],
      "stateMutability": "view",
      "type": "function"
    },
    {
      "inputs": [],
      "name": "owner",
      "outputs": [
        {
          "internalType": "address",
          "name": "",
          "type": "address"
        }
      ],
      "stateMutability": "view",
      "type": "function"
    },
    {
      "inputs": [
        {
          "internalType": "address",
          "name": "owner",
          "type": "address"
        },
        {
          "internalType": "address",
          "name": "spender",
          "type": "address"
        },
        {
          "internalType": "uint256",
          "name": "value",
          "type": "uint256"
        },
        {
          "internalType": "uint256",
          "name": "deadline",
          "type": "uint256"
        },
        {
          "internalType": "uint8",
          "name": "v",
          "type": "uint8"
        },
        {
          "internalType": "bytes32",
          "name": "r",
          "type": "bytes32"
        },
        {
          "internalType": "bytes32",
          "name": "s",
          "type": "bytes32"
        }
      ],
      "name": "permit",
      "outputs": [],
      "stateMutability": "nonpayable",
      "type": "function"
    },
    {
      "inputs": [],
      "name": "renounceOwnership",
      "outputs": [],
      "stateMutability": "nonpayable",
      "type": "function"
    },
    {
      "inputs": [],
      "name": "symbol",
      "outputs": [
        {
          "internalType": "string",
          "name": "",
          "type": "string"
        }
      ],
      "stateMutability": "view",
      "type": "function"
    },
    {
      "inputs": [],
      "name": "totalSupply",
      "outputs": [
        {
          "internalType": "uint256",
          "name": "",
          "type": "uint256"
        }
      ],
      "stateMutability": "view",
      "type": "function"
    },
    {
      "inputs": [
        {
          "internalType": "address",
          "name": "to",
          "type": "address"
        },
        {
          "internalType": "uint256",
          "name": "value",
          "type": "uint256"
        }
      ],
      "name": "transfer",
      "outputs": [
        {
          "internalType": "bool",
          "name": "",
          "type": "bool"
        }
      ],
      "stateMutability": "nonpayable",
      "type": "function"
    },
    {
      "inputs": [
        {
          "internalType": "address",
          "name": "from",
          "type": "address"
        },
        {
          "internalType": "address",
          "name": "to",
          "type": "address"
        },
        {
          "internalType": "uint256",
          "name": "value",
          "type": "uint256"
        }
      ],
      "name": "transferFrom",
      "outputs": [
        {
          "internalType": "bool",
          "name": "",
          "type": "bool"
        }
      ],
      "stateMutability": "nonpayable",
      "type": "function"
    },
    {
      "inputs": [
        {
          "internalType": "address",
          "name": "newOwner",
          "type": "address"
        }
      ],
      "name": "transferOwnership",
      "outputs": [],
      "stateMutability": "nonpayable",
      "type": "function"
    }
  ],
  "bytecode": "0x6101606040523480156200001257600080fd5b5060405162002e2f38038062002e2f833981016040819052620000359162000979565b806040518060400160405280600881526020016723b7bb2a37b5b2b760c11b81525080604051806040016040528060018152602001603160f81b8152506040518060400160405280600881526020016723b7bb2a37b5b2b760c11b8152506040518060400160405280600281526020016111d560f21b8152508160039081620000bf919062000a48565b506004620000ce828262000a48565b50620000e091508390506005620001f9565b61012052620000f1816006620001f9565b61014052815160208084019190912060e052815190820120610100524660a0526200017f60e05161010051604080517f8b73c3c69bb8fe3d512ecc4cf759cc79239f7b179b0ffacaa9a75d522b39400f60208201529081019290925260608201524660808201523060a082015260009060c00160405160208183030381529060405280519060200120905090565b60805250503060c052506001600160a01b038116620001bf576000604051631e4fbdf760e01b8152600401620001b6919062000b14565b60405180910390fd5b620001ca8162000232565b50620001f281620001de6012600a62000c3b565b620001ec906103e862000c4c565b62000284565b5062000d54565b600060208351101562000219576200021183620002c3565b90506200022c565b8162000226848262000a48565b5060ff90505b92915050565b600b80546001600160a01b038381166001600160a01b0319831681179093556040519116919082907f8be0079c531659141344cd1fd0a4f28419497f9722a3daafe3b4186f6b6457e090600090a35050565b6001600160a01b038216620002b157600060405163ec442f0560e01b8152600401620001b6919062000b14565b620002bf6000838362000306565b5050565b600080829050601f81511115620002f1578260405163305a27a960e01b8152600401620001b6919062000c66565b8051620002fe8262000cb6565b179392505050565b6200031383838362000318565b505050565b6200032583838362000387565b6001600160a01b0383166200037a5760006200034060025490565b90506001600160d01b03808211156200037757604051630e58ae9360e11b81526004810183905260248101829052604401620001b6565b50505b62000313838383620004ba565b6001600160a01b038316620003b6578060026000828254620003aa919062000cdb565b909155506200042a9050565b6001600160a01b038316600090815260208190526040902054818110156200040b5760405163391434e360e21b81526001600160a01b03851660048201526024810182905260448101839052606401620001b6565b6001600160a01b03841660009081526020819052604090209082900390555b6001600160a01b038216620004485760028054829003905562000467565b6001600160a01b03821660009081526020819052604090208054820190555b816001600160a01b0316836001600160a01b03167fddf252ad1be2c89b69c2b068fc378daa952ba7f163c4a11628f55a4df523b3ef83604051620004ad91815260200190565b60405180910390a3505050565b6001600160a01b038316620004ef57620004ec600a620009cc6200053f60201b17620004e68462000554565b6200058e565b50505b6001600160a01b0382166200051e576200051b600a620009d8620005cb60201b17620004e68462000554565b50505b620003136200052d84620005d9565b6200053884620005d9565b83620005f7565b60006200054d828462000cf1565b9392505050565b60006001600160d01b038211156200058a576040516306dfcc6560e41b815260d0600482015260248101839052604401620001b6565b5090565b600080620005be6200059f6200075e565b620005b5620005ae886200076f565b868860201c565b879190620007be565b915091505b935093915050565b60006200054d828462000d1b565b6001600160a01b039081166000908152600860205260409020541690565b816001600160a01b0316836001600160a01b0316141580156200061a5750600081115b1562000313576001600160a01b03831615620006bd576001600160a01b038316600090815260096020908152604082208291620006689190620005cb901b620009d817620004e68662000554565b6001600160d01b031691506001600160d01b03169150846001600160a01b031660008051602062002e0f8339815191528383604051620006b2929190918252602082015260400190565b60405180910390a250505b6001600160a01b0382161562000313576001600160a01b0382166000908152600960209081526040822082916200070591906200053f901b620009cc17620004e68662000554565b6001600160d01b031691506001600160d01b03169150836001600160a01b031660008051602062002e0f83398151915283836040516200074f929190918252602082015260400190565b60405180910390a25050505050565b60006200076a620007ce565b905090565b80546000908015620007b5576200079b836200078d60018462000d3e565b600091825260209091200190565b54660100000000000090046001600160d01b03166200054d565b60009392505050565b600080620005be858585620007db565b60006200076a4362000944565b825460009081908015620008e5576000620007fd876200078d60018562000d3e565b805490915065ffffffffffff80821691660100000000000090046001600160d01b03169088168211156200084457604051632520601d60e01b815260040160405180910390fd5b8765ffffffffffff168265ffffffffffff16036200088257825465ffffffffffff1666010000000000006001600160d01b03891602178355620008d6565b6040805180820190915265ffffffffffff808a1682526001600160d01b03808a1660208085019182528d54600181018f5560008f815291909120945191519092166601000000000000029216919091179101555b9450859350620005c392505050565b50506040805180820190915265ffffffffffff80851682526001600160d01b0380851660208085019182528854600181018a5560008a8152918220955192519093166601000000000000029190931617920191909155905081620005c3565b600065ffffffffffff8211156200058a576040516306dfcc6560e41b81526030600482015260248101839052604401620001b6565b6000602082840312156200098c57600080fd5b81516001600160a01b03811681146200054d57600080fd5b634e487b7160e01b600052604160045260246000fd5b600181811c90821680620009cf57607f821691505b602082108103620009f057634e487b7160e01b600052602260045260246000fd5b50919050565b601f8211156200031357600081815260208120601f850160051c8101602086101562000a1f5750805b601f850160051c820191505b8181101562000a405782815560010162000a2b565b505050505050565b81516001600160401b0381111562000a645762000a64620009a4565b62000a7c8162000a758454620009ba565b84620009f6565b602080601f83116001811462000ab4576000841562000a9b5750858301515b600019600386901b1c1916600185901b17855562000a40565b600085815260208120601f198616915b8281101562000ae55788860151825594840194600190910190840162000ac4565b508582101562000b045787850151600019600388901b60f8161c191681555b5050505050600190811b01905550565b6001600160a01b0391909116815260200190565b634e487b7160e01b600052601160045260246000fd5b600181815b8085111562000b7f57816000190482111562000b635762000b6362000b28565b8085161562000b7157918102915b93841c939080029062000b43565b509250929050565b60008262000b98575060016200022c565b8162000ba7575060006200022c565b816001811462000bc0576002811462000bcb5762000beb565b60019150506200022c565b60ff84111562000bdf5762000bdf62000b28565b50506001821b6200022c565b5060208310610133831016604e8410600b841016171562000c10575081810a6200022c565b62000c1c838362000b3e565b806000190482111562000c335762000c3362000b28565b029392505050565b60006200054d60ff84168362000b87565b80820281158282048414176200022c576200022c62000b28565b600060208083528351808285015260005b8181101562000c955785810183015185820160400152820162000c77565b506000604082860101526040601f19601f8301168501019250505092915050565b80516020808301519190811015620009f05760001960209190910360031b1b16919050565b808201808211156200022c576200022c62000b28565b6001600160d01b0381811683821601908082111562000d145762000d1462000b28565b5092915050565b6001600160d01b0382811682821603908082111562000d145762000d1462000b28565b818103818111156200022c576200022c62000b28565b60805160a05160c05160e05161010051610120516101405161206062000daf6000396000610e6f01526000610e4201526000610b8201526000610b5a01526000610ab501526000610adf01526000610b0901526120606000f3fe608060405234801561001057600080fd5b50600436106101545760003560e01c806306fdde0314610159578063095ea7b31461017757806318160ddd1461019a57806323b872dd146101ac578063313ce567146101bf5780633644e515146101ce5780633a46b1a8146101d657806340c10f19146101e95780634bf5d7e9146101fe578063587cde1e146102065780635c19a95c146102265780636fcfff451461023957806370a0823114610261578063715018a6146102745780637ecebe001461027c57806384b0196e1461028f5780638da5cb5b146102aa5780638e539e8c146102b257806391ddadf4146102c557806395d89b41146102e45780639ab24eb0146102ec578063a9059cbb146102ff578063c3cda52014610312578063d505accf14610325578063dd62ed3e14610338578063de5f72fd1461034b578063f1127ed814610353578063f2fde38b14610392575b600080fd5b6101616103a5565b60405161016e9190611adc565b60405180910390f35b61018a610185366004611b0b565b610437565b604051901515815260200161016e565b6002545b60405190815260200161016e565b61018a6101ba366004611b35565b610451565b6040516012815260200161016e565b61019e610475565b61019e6101e4366004611b0b565b610484565b6101fc6101f7366004611b0b565b610501565b005b610161610517565b610219610214366004611b71565b61058f565b60405161016e9190611b8c565b6101fc610234366004611b71565b6105ad565b61024c610247366004611b71565b6105b8565b60405163ffffffff909116815260200161016e565b61019e61026f366004611b71565b6105c3565b6101fc6105de565b61019e61028a366004611b71565b6105f2565b6102976105fd565b60405161016e9796959493929190611ba0565b610219610643565b61019e6102c0366004611c36565b610652565b6102cd6106af565b60405165ffffffffffff909116815260200161016e565b6101616106b9565b61019e6102fa366004611b71565b6106c8565b61018a61030d366004611b0b565b6106f8565b6101fc610320366004611c60565b610706565b6101fc610333366004611cb8565b6107c3565b61019e610346366004611d22565b6108df565b6101fc61090a565b610366610361366004611d55565b610975565b60408051825165ffffffffffff1681526020928301516001600160d01b0316928101929092520161016e565b6101fc6103a0366004611b71565b61098e565b6060600380546103b490611d95565b80601f01602080910402602001604051908101604052809291908181526020018280546103e090611d95565b801561042d5780601f106104025761010080835404028352916020019161042d565b820191906000526020600020905b81548152906001019060200180831161041057829003601f168201915b5050505050905090565b6000336104458185856109e4565b60019150505b92915050565b60003361045f8582856109f6565b61046a858585610a49565b506001949350505050565b600061047f610aa8565b905090565b60008061048f6106af565b90508065ffffffffffff1683106104c6578281604051637669fc0f60e11b81526004016104bd929190611dcf565b60405180910390fd5b6104f06104d284610bd3565b6001600160a01b038616600090815260096020526040902090610c05565b6001600160d01b0316949350505050565b610509610cbb565b6105138282610ced565b5050565b6060610521610d23565b65ffffffffffff166105316106af565b65ffffffffffff1614610557576040516301bfc1c560e61b815260040160405180910390fd5b5060408051808201909152601d81527f6d6f64653d626c6f636b6e756d6265722666726f6d3d64656661756c74000000602082015290565b6001600160a01b039081166000908152600860205260409020541690565b336105138183610d2e565b600061044b82610da9565b6001600160a01b031660009081526020819052604090205490565b6105e6610cbb565b6105f06000610dcb565b565b600061044b82610e1d565b600060608060008060006060610611610e3b565b610619610e68565b60408051600080825260208201909252600f60f81b9b939a50919850469750309650945092509050565b600b546001600160a01b031690565b60008061065d6106af565b90508065ffffffffffff16831061068b578281604051637669fc0f60e11b81526004016104bd929190611dcf565b61069f61069784610bd3565b600a90610c05565b6001600160d01b03169392505050565b600061047f610d23565b6060600480546103b490611d95565b6001600160a01b03811660009081526009602052604081206106e990610e95565b6001600160d01b031692915050565b600033610445818585610a49565b8342111561072a57604051632341d78760e11b8152600481018590526024016104bd565b604080517fe48329057bfd03d55e49b547132e39cffd9c1820ad7b9d4c5307691425d15adf60208201526001600160a01b0388169181019190915260608101869052608081018590526000906107a49061079c9060a00160405160208183030381529060405280519060200120610ece565b858585610efb565b90506107b08187610f29565b6107ba8188610d2e565b50505050505050565b834211156107e75760405163313c898160e11b8152600481018590526024016104bd565b60007f6e71edae12b1b97f4d1f60370fef10105fa2faae0126114a169c64845d6126c98888886108168c610f68565b6040805160208101969096526001600160a01b0394851690860152929091166060840152608083015260a082015260c0810186905260e001604051602081830303815290604052805190602001209050600061087182610ece565b9050600061088182878787610efb565b9050896001600160a01b0316816001600160a01b0316146108c8576040516325c0072360e11b81526001600160a01b0380831660048301528b1660248201526044016104bd565b6108d38a8a8a6109e4565b50505050505050505050565b6001600160a01b03918216600090815260016020908152604080832093909416825291909152205490565b610913336105c3565b156109555760405162461bcd60e51b8152602060048201526012602482015271416c72656164792068617320746f6b656e7360701b60448201526064016104bd565b6105f0336109656012600a611edf565b610970906064611eee565b610ced565b61097d611a7f565b6109878383610f8b565b9392505050565b610996610cbb565b6001600160a01b0381166109c0576000604051631e4fbdf760e01b81526004016104bd9190611b8c565b6109c981610dcb565b50565b60006109878284611f05565b60006109878284611f2c565b6109f18383836001610fb5565b505050565b6000610a0284846108df565b90506000198114610a435781811015610a3457828183604051637dc7a0d960e11b81526004016104bd93929190611f4c565b610a4384848484036000610fb5565b50505050565b6001600160a01b038316610a73576000604051634b637e8f60e11b81526004016104bd9190611b8c565b6001600160a01b038216610a9d57600060405163ec442f0560e01b81526004016104bd9190611b8c565b6109f183838361108a565b6000306001600160a01b037f000000000000000000000000000000000000000000000000000000000000000016148015610b0157507f000000000000000000000000000000000000000000000000000000000000000046145b15610b2b57507f000000000000000000000000000000000000000000000000000000000000000090565b61047f604080517f8b73c3c69bb8fe3d512ecc4cf759cc79239f7b179b0ffacaa9a75d522b39400f60208201527f0000000000000000000000000000000000000000000000000000000000000000918101919091527f000000000000000000000000000000000000000000000000000000000000000060608201524660808201523060a082015260009060c00160405160208183030381529060405280519060200120905090565b600065ffffffffffff821115610c01576030826040516306dfcc6560e41b81526004016104bd929190611f6d565b5090565b815460009081816005811115610c64576000610c2084611095565b610c2a9085611f80565b60008881526020902090915081015465ffffffffffff9081169087161015610c5457809150610c62565b610c5f816001611f93565b92505b505b6000610c72878785856111e8565b90508015610cad57610c9787610c89600184611f80565b600091825260209091200190565b54600160301b90046001600160d01b0316610cb0565b60005b979650505050505050565b33610cc4610643565b6001600160a01b0316146105f0573360405163118cdaa760e01b81526004016104bd9190611b8c565b6001600160a01b038216610d1757600060405163ec442f0560e01b81526004016104bd9190611b8c565b6105136000838361108a565b600061047f43610bd3565b6000610d398361058f565b6001600160a01b0384811660008181526008602052604080822080546001600160a01b031916888616908117909155905194955093928516927f3134e8a2e6d97e929a7e54011ea5485d7d196dd5f0ba4d4ef95803e8e3fc257f9190a46109f18183610da48661124a565b611255565b6001600160a01b03811660009081526009602052604081205461044b9061139d565b600b80546001600160a01b038381166001600160a01b0319831681179093556040519116919082907f8be0079c531659141344cd1fd0a4f28419497f9722a3daafe3b4186f6b6457e090600090a35050565b6001600160a01b03811660009081526007602052604081205461044b565b606061047f7f000000000000000000000000000000000000000000000000000000000000000060056113c9565b606061047f7f000000000000000000000000000000000000000000000000000000000000000060066113c9565b80546000908015610ec557610eaf83610c89600184611f80565b54600160301b90046001600160d01b0316610987565b60009392505050565b600061044b610edb610aa8565b8360405161190160f01b8152600281019290925260228201526042902090565b600080600080610f0d88888888611474565b925092509250610f1d8282611539565b50909695505050505050565b6000610f3483610f68565b90508082146109f1576040516301d4b62360e61b81526001600160a01b0384166004820152602481018290526044016104bd565b6001600160a01b0316600090815260076020526040902080546001810190915590565b610f93611a7f565b6001600160a01b038316600090815260096020526040902061098790836115f2565b6001600160a01b038416610fdf57600060405163e602df0560e01b81526004016104bd9190611b8c565b6001600160a01b038316611009576000604051634a1406b160e11b81526004016104bd9190611b8c565b6001600160a01b0380851660009081526001602090815260408083209387168352929052208290558015610a4357826001600160a01b0316846001600160a01b03167f8c5be1e5ebec7d5bd14f71427d1e84f3dd0314c0f7b2291e5b200ac8c7c3b9258460405161107c91815260200190565b60405180910390a350505050565b6109f1838383611656565b6000600182116110a3575090565b816001600160801b82106110bc5760809190911c9060401b5b600160401b82106110d25760409190911c9060201b5b600160201b82106110e85760209190911c9060101b5b6201000082106110fd5760109190911c9060081b5b61010082106111115760089190911c9060041b5b601082106111245760049190911c9060021b5b600482106111305760011b5b600302600190811c9081858161114857611148611fa6565b048201901c9050600181858161116057611160611fa6565b048201901c9050600181858161117857611178611fa6565b048201901c9050600181858161119057611190611fa6565b048201901c905060018185816111a8576111a8611fa6565b048201901c905060018185816111c0576111c0611fa6565b048201901c90506111df8185816111d9576111d9611fa6565b04821190565b90039392505050565b60005b818310156112425760006111ff84846116bd565b60008781526020902090915065ffffffffffff86169082015465ffffffffffff16111561122e5780925061123c565b611239816001611f93565b93505b506111eb565b509392505050565b600061044b826105c3565b816001600160a01b0316836001600160a01b0316141580156112775750600081115b156109f1576001600160a01b0383161561130d576001600160a01b038316600090815260096020526040812081906112ba906109d86112b5866116d8565b611707565b6001600160d01b031691506001600160d01b03169150846001600160a01b031660008051602061200b8339815191528383604051611302929190918252602082015260400190565b60405180910390a250505b6001600160a01b038216156109f1576001600160a01b03821660009081526009602052604081208190611346906109cc6112b5866116d8565b6001600160d01b031691506001600160d01b03169150836001600160a01b031660008051602061200b833981519152838360405161138e929190918252602082015260400190565b60405180910390a25050505050565b600063ffffffff821115610c01576020826040516306dfcc6560e41b81526004016104bd929190611f6d565b606060ff83146113e3576113dc83611740565b905061044b565b8180546113ef90611d95565b80601f016020809104026020016040519081016040528092919081815260200182805461141b90611d95565b80156114685780601f1061143d57610100808354040283529160200191611468565b820191906000526020600020905b81548152906001019060200180831161144b57829003601f168201915b5050505050905061044b565b600080806fa2a8918ca85bafe22016d0b997e4df60600160ff1b038411156114a5575060009150600390508261152f565b604080516000808252602082018084528a905260ff891692820192909252606081018790526080810186905260019060a0016020604051602081039080840390855afa1580156114f9573d6000803e3d6000fd5b5050604051601f1901519150506001600160a01b0381166115255750600092506001915082905061152f565b9250600091508190505b9450945094915050565b600082600381111561154d5761154d611fbc565b03611556575050565b600182600381111561156a5761156a611fbc565b036115885760405163f645eedf60e01b815260040160405180910390fd5b600282600381111561159c5761159c611fbc565b036115bd5760405163fce698f760e01b8152600481018290526024016104bd565b60038260038111156115d1576115d1611fbc565b03610513576040516335e2f38360e21b8152600481018290526024016104bd565b6115fa611a7f565b826000018263ffffffff168154811061161557611615611fd2565b60009182526020918290206040805180820190915291015465ffffffffffff81168252600160301b90046001600160d01b0316918101919091529392505050565b61166183838361177f565b6001600160a01b0383166116b257600061167a60025490565b90506001600160d01b03808211156116af57604051630e58ae9360e11b815260048101839052602481018290526044016104bd565b50505b6109f1838383611896565b60006116cc6002848418611fe8565b61098790848416611f93565b60006001600160d01b03821115610c015760d0826040516306dfcc6560e41b81526004016104bd929190611f6d565b6000806117336117156106af565b61172b61172188610e95565b868863ffffffff16565b8791906118f5565b915091505b935093915050565b6060600061174d83611903565b604080516020808252818301909252919250600091906020820181803683375050509182525060208101929092525090565b6001600160a01b0383166117aa57806002600082825461179f9190611f93565b909155506118099050565b6001600160a01b038316600090815260208190526040902054818110156117ea5783818360405163391434e360e21b81526004016104bd93929190611f4c565b6001600160a01b03841660009081526020819052604090209082900390555b6001600160a01b03821661182557600280548290039055611844565b6001600160a01b03821660009081526020819052604090208054820190555b816001600160a01b0316836001600160a01b03167fddf252ad1be2c89b69c2b068fc378daa952ba7f163c4a11628f55a4df523b3ef8360405161188991815260200190565b60405180910390a3505050565b6001600160a01b0383166118b8576118b5600a6109cc6112b5846116d8565b50505b6001600160a01b0382166118da576118d7600a6109d86112b5846116d8565b50505b6109f16118e68461058f565b6118ef8461058f565b83611255565b60008061173385858561192b565b600060ff8216601f81111561044b57604051632cd44ac360e21b815260040160405180910390fd5b825460009081908015611a2457600061194987610c89600185611f80565b805490915065ffffffffffff80821691600160301b90046001600160d01b031690881682111561198c57604051632520601d60e01b815260040160405180910390fd5b8765ffffffffffff168265ffffffffffff16036119c557825465ffffffffffff16600160301b6001600160d01b03891602178355611a16565b6040805180820190915265ffffffffffff808a1682526001600160d01b03808a1660208085019182528d54600181018f5560008f81529190912094519151909216600160301b029216919091179101555b945085935061173892505050565b50506040805180820190915265ffffffffffff80851682526001600160d01b0380851660208085019182528854600181018a5560008a815291822095519251909316600160301b029190931617920191909155905081611738565b604080518082019091526000808252602082015290565b6000815180845260005b81811015611abc57602081850181015186830182015201611aa0565b506000602082860101526020601f19601f83011685010191505092915050565b6020815260006109876020830184611a96565b80356001600160a01b0381168114611b0657600080fd5b919050565b60008060408385031215611b1e57600080fd5b611b2783611aef565b946020939093013593505050565b600080600060608486031215611b4a57600080fd5b611b5384611aef565b9250611b6160208501611aef565b9150604084013590509250925092565b600060208284031215611b8357600080fd5b61098782611aef565b6001600160a01b0391909116815260200190565b60ff60f81b881681526000602060e081840152611bc060e084018a611a96565b8381036040850152611bd2818a611a96565b606085018990526001600160a01b038816608086015260a0850187905284810360c0860152855180825283870192509083019060005b81811015611c2457835183529284019291840191600101611c08565b50909c9b505050505050505050505050565b600060208284031215611c4857600080fd5b5035919050565b803560ff81168114611b0657600080fd5b60008060008060008060c08789031215611c7957600080fd5b611c8287611aef565b95506020870135945060408701359350611c9e60608801611c4f565b92506080870135915060a087013590509295509295509295565b600080600080600080600060e0888a031215611cd357600080fd5b611cdc88611aef565b9650611cea60208901611aef565b95506040880135945060608801359350611d0660808901611c4f565b925060a0880135915060c0880135905092959891949750929550565b60008060408385031215611d3557600080fd5b611d3e83611aef565b9150611d4c60208401611aef565b90509250929050565b60008060408385031215611d6857600080fd5b611d7183611aef565b9150602083013563ffffffff81168114611d8a57600080fd5b809150509250929050565b600181811c90821680611da957607f821691505b602082108103611dc957634e487b7160e01b600052602260045260246000fd5b50919050565b91825265ffffffffffff16602082015260400190565b634e487b7160e01b600052601160045260246000fd5b600181815b80851115611e36578160001904821115611e1c57611e1c611de5565b80851615611e2957918102915b93841c9390800290611e00565b509250929050565b600082611e4d5750600161044b565b81611e5a5750600061044b565b8160018114611e705760028114611e7a57611e96565b600191505061044b565b60ff841115611e8b57611e8b611de5565b50506001821b61044b565b5060208310610133831016604e8410600b8410161715611eb9575081810a61044b565b611ec38383611dfb565b8060001904821115611ed757611ed7611de5565b029392505050565b600061098760ff841683611e3e565b808202811582820484141761044b5761044b611de5565b6001600160d01b03818116838216019080821115611f2557611f25611de5565b5092915050565b6001600160d01b03828116828216039080821115611f2557611f25611de5565b6001600160a01b039390931683526020830191909152604082015260600190565b60ff929092168252602082015260400190565b8181038181111561044b5761044b611de5565b8082018082111561044b5761044b611de5565b634e487b7160e01b600052601260045260246000fd5b634e487b7160e01b600052602160045260246000fd5b634e487b7160e01b600052603260045260246000fd5b60008261200557634e487b7160e01b600052601260045260246000fd5b50049056fedec2bacdd2f05b59de34da9b523dff8be42e5e38e818c82fdb0bae774387a724a2646970667358221220e1004f7b9e0f7704f6047565c9daba5ae487ebd0674b571062b245c441a9d65164736f6c63430008140033dec2bacdd2f05b59de34da9b523dff8be42e5e38e818c82fdb0bae774387a724",
  "linkReferences": {},
  "deployedLinkReferences": {}
}