{
  "_format": "hh-sol-artifact-1",
  "contractName": "Cert",
  "sourceName": "contracts/Certi.sol",
  "abi": [
    {
      "inputs": [
        {
          "internalType": "address",
          "name": "initialOwner",
          "type": "address"
        }
      ],
      "stateMutability": "nonpayable",
      "type": "constructor"
    },
    {
      "inputs": [
        {
          "internalType": "address",
          "name": "owner",
          "type": "address"
        }
      ],
      "name": "OwnableInvalidOwner",
      "type": "error"
    },
    {
      "inputs": [
        {
          "internalType": "address",
          "name": "account",
          "type": "address"
        }
      ],
      "name": "OwnableUnauthorizedAccount",
      "type": "error"
    },
    {
      "anonymous": false,
      "inputs": [
        {
          "indexed": false,
          "internalType": "uint256",
          "name": "certificateId",
          "type": "uint256"
        },
        {
          "indexed": false,
          "internalType": "string",
          "name": "issueDate",
          "type": "string"
        }
      ],
      "name": "CertificateIssued",
      "type": "event"
    },
    {
      "anonymous": false,
      "inputs": [
        {
          "indexed": false,
          "internalType": "uint256",
          "name": "certificateId",
          "type": "uint256"
        }
      ],
      "name": "CertificateRevoked",
      "type": "event"
    },
    {
      "anonymous": false,
      "inputs": [
        {
          "indexed": true,
          "internalType": "address",
          "name": "previousOwner",
          "type": "address"
        },
        {
          "indexed": true,
          "internalType": "address",
          "name": "newOwner",
          "type": "address"
        }
      ],
      "name": "OwnershipTransferred",
      "type": "event"
    },
    {
      "inputs": [
        {
          "internalType": "uint256",
          "name": "",
          "type": "uint256"
        }
      ],
      "name": "certificates",
      "outputs": [
        {
          "internalType": "string",
          "name": "name",
          "type": "string"
        },
        {
          "internalType": "string",
          "name": "course",
          "type": "string"
        },
        {
          "internalType": "string",
          "name": "grade",
          "type": "string"
        },
        {
          "internalType": "string",
          "name": "date",
          "type": "string"
        }
      ],
      "stateMutability": "view",
      "type": "function"
    },
    {
      "inputs": [
        {
          "internalType": "uint256",
          "name": "_id",
          "type": "uint256"
        },
        {
          "internalType": "string",
          "name": "_name",
          "type": "string"
        },
        {
          "internalType": "string",
          "name": "_course",
          "type": "string"
        },
        {
          "internalType": "string",
          "name": "_grade",
          "type": "string"
        },
        {
          "internalType": "string",
          "name": "_date",
          "type": "string"
        }
      ],
      "name": "issue",
      "outputs": [],
      "stateMutability": "nonpayable",
      "type": "function"
    },
    {
      "inputs": [],
      "name": "owner",
      "outputs": [
        {
          "internalType": "address",
          "name": "",
          "type": "address"
        }
      ],
      "stateMutability": "view",
      "type": "function"
    },
    {
      "inputs": [],
      "name": "renounceOwnership",
      "outputs": [],
      "stateMutability": "nonpayable",
      "type": "function"
    },
    {
      "inputs": [
        {
          "internalType": "uint256",
          "name": "_id",
          "type": "uint256"
        }
      ],
      "name": "revoke",
      "outputs": [],
      "stateMutability": "nonpayable",
      "type": "function"
    },
    {
      "inputs": [
        {
          "internalType": "address",
          "name": "newOwner",
          "type": "address"
        }
      ],
      "name": "transferOwnership",
      "outputs": [],
      "stateMutability": "nonpayable",
      "type": "function"
    }
  ],
  "bytecode": "0x608060405234801561001057600080fd5b50604051610b70380380610b7083398101604081905261002f916100be565b806001600160a01b03811661005e57604051631e4fbdf760e01b81526000600482015260240160405180910390fd5b6100678161006e565b50506100ee565b600080546001600160a01b038381166001600160a01b0319831681178455604051919092169283917f8be0079c531659141344cd1fd0a4f28419497f9722a3daafe3b4186f6b6457e09190a35050565b6000602082840312156100d057600080fd5b81516001600160a01b03811681146100e757600080fd5b9392505050565b610a73806100fd6000396000f3fe608060405234801561001057600080fd5b50600436106100625760003560e01c806320c5429b14610067578063663b3e221461007c578063715018a6146100a85780638da5cb5b146100b0578063d1e7be26146100c5578063f2fde38b146100d8575b600080fd5b61007a610075366004610681565b6100eb565b005b61008f61008a366004610681565b6101da565b60405161009f94939291906106e0565b60405180910390f35b61007a610422565b6100b8610436565b60405161009f9190610738565b61007a6100d33660046107ee565b610445565b61007a6100e63660046108a4565b610573565b6100f36105b1565b6000818152600160205260409020805461010c906108d4565b905060000361015f5760405162461bcd60e51b815260206004820152601a60248201527910d95c9d1a599a58d85d1948191bd95cc81b9bdd08195e1a5cdd60321b60448201526064015b60405180910390fd5b6000818152600160205260408120906101788282610633565b610186600183016000610633565b610194600283016000610633565b6101a2600383016000610633565b50506040518181527fefa6c5f47ac2523bb4db18032377bf7fdce0fa9d86eddcae1ca9bba38be615d79060200160405180910390a150565b6001602052600090815260409020805481906101f5906108d4565b80601f0160208091040260200160405190810160405280929190818152602001828054610221906108d4565b801561026e5780601f106102435761010080835404028352916020019161026e565b820191906000526020600020905b81548152906001019060200180831161025157829003601f168201915b505050505090806001018054610283906108d4565b80601f01602080910402602001604051908101604052809291908181526020018280546102af906108d4565b80156102fc5780601f106102d1576101008083540402835291602001916102fc565b820191906000526020600020905b8154815290600101906020018083116102df57829003601f168201915b505050505090806002018054610311906108d4565b80601f016020809104026020016040519081016040528092919081815260200182805461033d906108d4565b801561038a5780601f1061035f5761010080835404028352916020019161038a565b820191906000526020600020905b81548152906001019060200180831161036d57829003601f168201915b50505050509080600301805461039f906108d4565b80601f01602080910402602001604051908101604052809291908181526020018280546103cb906108d4565b80156104185780601f106103ed57610100808354040283529160200191610418565b820191906000526020600020905b8154815290600101906020018083116103fb57829003601f168201915b5050505050905084565b61042a6105b1565b61043460006105e3565b565b6000546001600160a01b031690565b61044d6105b1565b60008581526001602052604090208054610466906108d4565b1590506104b25760405162461bcd60e51b815260206004820152601a602482015279436572746966696361746520616c72656164792065786973747360301b6044820152606401610156565b604080516080810182528581526020808201869052818301859052606082018490526000888152600190915291909120815181906104f0908261095d565b5060208201516001820190610505908261095d565b506040820151600282019061051a908261095d565b506060820151600382019061052f908261095d565b509050507f82e047af96f6b7e5a52ea238aee0ca4188211301535ddf1fe126e140df6421b48582604051610564929190610a1c565b60405180910390a15050505050565b61057b6105b1565b6001600160a01b0381166105a5576000604051631e4fbdf760e01b81526004016101569190610738565b6105ae816105e3565b50565b336105ba610436565b6001600160a01b031614610434573360405163118cdaa760e01b81526004016101569190610738565b600080546001600160a01b038381166001600160a01b0319831681178455604051919092169283917f8be0079c531659141344cd1fd0a4f28419497f9722a3daafe3b4186f6b6457e09190a35050565b50805461063f906108d4565b6000825580601f1061064f575050565b601f0160209004906000526020600020908101906105ae91905b8082111561067d5760008155600101610669565b5090565b60006020828403121561069357600080fd5b5035919050565b6000815180845260005b818110156106c0576020818501810151868301820152016106a4565b506000602082860101526020601f19601f83011685010191505092915050565b6080815260006106f3608083018761069a565b8281036020840152610705818761069a565b90508281036040840152610719818661069a565b9050828103606084015261072d818561069a565b979650505050505050565b6001600160a01b0391909116815260200190565b634e487b7160e01b600052604160045260246000fd5b600082601f83011261077357600080fd5b81356001600160401b038082111561078d5761078d61074c565b604051601f8301601f19908116603f011681019082821181831017156107b5576107b561074c565b816040528381528660208588010111156107ce57600080fd5b836020870160208301376000602085830101528094505050505092915050565b600080600080600060a0868803121561080657600080fd5b8535945060208601356001600160401b038082111561082457600080fd5b61083089838a01610762565b9550604088013591508082111561084657600080fd5b61085289838a01610762565b9450606088013591508082111561086857600080fd5b61087489838a01610762565b9350608088013591508082111561088a57600080fd5b5061089788828901610762565b9150509295509295909350565b6000602082840312156108b657600080fd5b81356001600160a01b03811681146108cd57600080fd5b9392505050565b600181811c908216806108e857607f821691505b60208210810361090857634e487b7160e01b600052602260045260246000fd5b50919050565b601f82111561095857600081815260208120601f850160051c810160208610156109355750805b601f850160051c820191505b8181101561095457828155600101610941565b5050505b505050565b81516001600160401b038111156109765761097661074c565b61098a8161098484546108d4565b8461090e565b602080601f8311600181146109bf57600084156109a75750858301515b600019600386901b1c1916600185901b178555610954565b600085815260208120601f198616915b828110156109ee578886015182559484019460019091019084016109cf565b5085821015610a0c5787850151600019600388901b60f8161c191681555b5050505050600190811b01905550565b828152604060208201526000610a35604083018461069a565b94935050505056fea2646970667358221220bad67405ebe3269e5d0078be5fd400f0a22b40dceff4e722787aeff98a8b21c264736f6c63430008140033",
  "linkReferences": {},
  "deployedLinkReferences": {}
}