{
  "_format": "hh-sol-artifact-1",
  "contractName": "MyGovernor",
  "sourceName": "contracts/Governer.sol",
  "abi": [
    {
      "inputs": [
        {
          "internalType": "contract IVotes",
          "name": "_token",
          "type": "address"
        },
        {
          "internalType": "contract TimelockController",
          "name": "_timelock",
          "type": "address"
        }
      ],
      "stateMutability": "nonpayable",
      "type": "constructor"
    },
    {
      "inputs": [],
      "name": "CheckpointUnorderedInsertion",
      "type": "error"
    },
    {
      "inputs": [],
      "name": "FailedCall",
      "type": "error"
    },
    {
      "inputs": [
        {
          "internalType": "address",
          "name": "voter",
          "type": "address"
        }
      ],
      "name": "GovernorAlreadyCastVote",
      "type": "error"
    },
    {
      "inputs": [
        {
          "internalType": "uint256",
          "name": "proposalId",
          "type": "uint256"
        }
      ],
      "name": "GovernorAlreadyQueuedProposal",
      "type": "error"
    },
    {
      "inputs": [],
      "name": "GovernorDisabledDeposit",
      "type": "error"
    },
    {
      "inputs": [
        {
          "internalType": "address",
          "name": "proposer",
          "type": "address"
        },
        {
          "internalType": "uint256",
          "name": "votes",
          "type": "uint256"
        },
        {
          "internalType": "uint256",
          "name": "threshold",
          "type": "uint256"
        }
      ],
      "name": "GovernorInsufficientProposerVotes",
      "type": "error"
    },
    {
      "inputs": [
        {
          "internalType": "uint256",
          "name": "targets",
          "type": "uint256"
        },
        {
          "internalType": "uint256",
          "name": "calldatas",
          "type": "uint256"
        },
        {
          "internalType": "uint256",
          "name": "values",
          "type": "uint256"
        }
      ],
      "name": "GovernorInvalidProposalLength",
      "type": "error"
    },
    {
      "inputs": [
        {
          "internalType": "uint256",
          "name": "quorumNumerator",
          "type": "uint256"
        },
        {
          "internalType": "uint256",
          "name": "quorumDenominator",
          "type": "uint256"
        }
      ],
      "name": "GovernorInvalidQuorumFraction",
      "type": "error"
    },
    {
      "inputs": [
        {
          "internalType": "address",
          "name": "voter",
          "type": "address"
        }
      ],
      "name": "GovernorInvalidSignature",
      "type": "error"
    },
    {
      "inputs": [],
      "name": "GovernorInvalidVoteParams",
      "type": "error"
    },
    {
      "inputs": [],
      "name": "GovernorInvalidVoteType",
      "type": "error"
    },
    {
      "inputs": [
        {
          "internalType": "uint256",
          "name": "votingPeriod",
          "type": "uint256"
        }
      ],
      "name": "GovernorInvalidVotingPeriod",
      "type": "error"
    },
    {
      "inputs": [
        {
          "internalType": "uint256",
          "name": "proposalId",
          "type": "uint256"
        }
      ],
      "name": "GovernorNonexistentProposal",
      "type": "error"
    },
    {
      "inputs": [
        {
          "internalType": "uint256",
          "name": "proposalId",
          "type": "uint256"
        }
      ],
      "name": "GovernorNotQueuedProposal",
      "type": "error"
    },
    {
      "inputs": [
        {
          "internalType": "address",
          "name": "account",
          "type": "address"
        }
      ],
      "name": "GovernorOnlyExecutor",
      "type": "error"
    },
    {
      "inputs": [
        {
          "internalType": "address",
          "name": "account",
          "type": "address"
        }
      ],
      "name": "GovernorOnlyProposer",
      "type": "error"
    },
    {
      "inputs": [],
      "name": "GovernorQueueNotImplemented",
      "type": "error"
    },
    {
      "inputs": [
        {
          "internalType": "address",
          "name": "proposer",
          "type": "address"
        }
      ],
      "name": "GovernorRestrictedProposer",
      "type": "error"
    },
    {
      "inputs": [
        {
          "internalType": "uint256",
          "name": "proposalId",
          "type": "uint256"
        },
        {
          "internalType": "enum IGovernor.ProposalState",
          "name": "current",
          "type": "uint8"
        },
        {
          "internalType": "bytes32",
          "name": "expectedStates",
          "type": "bytes32"
        }
      ],
      "name": "GovernorUnexpectedProposalState",
      "type": "error"
    },
    {
      "inputs": [
        {
          "internalType": "address",
          "name": "account",
          "type": "address"
        },
        {
          "internalType": "uint256",
          "name": "currentNonce",
          "type": "uint256"
        }
      ],
      "name": "InvalidAccountNonce",
      "type": "error"
    },
    {
      "inputs": [],
      "name": "InvalidShortString",
      "type": "error"
    },
    {
      "inputs": [
        {
          "internalType": "uint8",
          "name": "bits",
          "type": "uint8"
        },
        {
          "internalType": "uint256",
          "name": "value",
          "type": "uint256"
        }
      ],
      "name": "SafeCastOverflowedUintDowncast",
      "type": "error"
    },
    {
      "inputs": [
        {
          "internalType": "string",
          "name": "str",
          "type": "string"
        }
      ],
      "name": "StringTooLong",
      "type": "error"
    },
    {
      "anonymous": false,
      "inputs": [],
      "name": "EIP712DomainChanged",
      "type": "event"
    },
    {
      "anonymous": false,
      "inputs": [
        {
          "indexed": false,
          "internalType": "uint256",
          "name": "proposalId",
          "type": "uint256"
        }
      ],
      "name": "ProposalCanceled",
      "type": "event"
    },
    {
      "anonymous": false,
      "inputs": [
        {
          "indexed": false,
          "internalType": "uint256",
          "name": "proposalId",
          "type": "uint256"
        },
        {
          "indexed": false,
          "internalType": "address",
          "name": "proposer",
          "type": "address"
        },
        {
          "indexed": false,
          "internalType": "address[]",
          "name": "targets",
          "type": "address[]"
        },
        {
          "indexed": false,
          "internalType": "uint256[]",
          "name": "values",
          "type": "uint256[]"
        },
        {
          "indexed": false,
          "internalType": "string[]",
          "name": "signatures",
          "type": "string[]"
        },
        {
          "indexed": false,
          "internalType": "bytes[]",
          "name": "calldatas",
          "type": "bytes[]"
        },
        {
          "indexed": false,
          "internalType": "uint256",
          "name": "voteStart",
          "type": "uint256"
        },
        {
          "indexed": false,
          "internalType": "uint256",
          "name": "voteEnd",
          "type": "uint256"
        },
        {
          "indexed": false,
          "internalType": "string",
          "name": "description",
          "type": "string"
        }
      ],
      "name": "ProposalCreated",
      "type": "event"
    },
    {
      "anonymous": false,
      "inputs": [
        {
          "indexed": false,
          "internalType": "uint256",
          "name": "proposalId",
          "type": "uint256"
        }
      ],
      "name": "ProposalExecuted",
      "type": "event"
    },
    {
      "anonymous": false,
      "inputs": [
        {
          "indexed": false,
          "internalType": "uint256",
          "name": "proposalId",
          "type": "uint256"
        },
        {
          "indexed": false,
          "internalType": "uint256",
          "name": "etaSeconds",
          "type": "uint256"
        }
      ],
      "name": "ProposalQueued",
      "type": "event"
    },
    {
      "anonymous": false,
      "inputs": [
        {
          "indexed": false,
          "internalType": "uint256",
          "name": "oldQuorumNumerator",
          "type": "uint256"
        },
        {
          "indexed": false,
          "internalType": "uint256",
          "name": "newQuorumNumerator",
          "type": "uint256"
        }
      ],
      "name": "QuorumNumeratorUpdated",
      "type": "event"
    },
    {
      "anonymous": false,
      "inputs": [
        {
          "indexed": false,
          "internalType": "address",
          "name": "oldTimelock",
          "type": "address"
        },
        {
          "indexed": false,
          "internalType": "address",
          "name": "newTimelock",
          "type": "address"
        }
      ],
      "name": "TimelockChange",
      "type": "event"
    },
    {
      "anonymous": false,
      "inputs": [
        {
          "indexed": true,
          "internalType": "address",
          "name": "voter",
          "type": "address"
        },
        {
          "indexed": false,
          "internalType": "uint256",
          "name": "proposalId",
          "type": "uint256"
        },
        {
          "indexed": false,
          "internalType": "uint8",
          "name": "support",
          "type": "uint8"
        },
        {
          "indexed": false,
          "internalType": "uint256",
          "name": "weight",
          "type": "uint256"
        },
        {
          "indexed": false,
          "internalType": "string",
          "name": "reason",
          "type": "string"
        }
      ],
      "name": "VoteCast",
      "type": "event"
    },
    {
      "anonymous": false,
      "inputs": [
        {
          "indexed": true,
          "internalType": "address",
          "name": "voter",
          "type": "address"
        },
        {
          "indexed": false,
          "internalType": "uint256",
          "name": "proposalId",
          "type": "uint256"
        },
        {
          "indexed": false,
          "internalType": "uint8",
          "name": "support",
          "type": "uint8"
        },
        {
          "indexed": false,
          "internalType": "uint256",
          "name": "weight",
          "type": "uint256"
        },
        {
          "indexed": false,
          "internalType": "string",
          "name": "reason",
          "type": "string"
        },
        {
          "indexed": false,
          "internalType": "bytes",
          "name": "params",
          "type": "bytes"
        }
      ],
      "name": "VoteCastWithParams",
      "type": "event"
    },
    {
      "inputs": [],
      "name": "BALLOT_TYPEHASH",
      "outputs": [
        {
          "internalType": "bytes32",
          "name": "",
          "type": "bytes32"
        }
      ],
      "stateMutability": "view",
      "type": "function"
    },
    {
      "inputs": [],
      "name": "CLOCK_MODE",
      "outputs": [
        {
          "internalType": "string",
          "name": "",
          "type": "string"
        }
      ],
      "stateMutability": "view",
      "type": "function"
    },
    {
      "inputs": [],
      "name": "COUNTING_MODE",
      "outputs": [
        {
          "internalType": "string",
          "name": "",
          "type": "string"
        }
      ],
      "stateMutability": "pure",
      "type": "function"
    },
    {
      "inputs": [],
      "name": "EXTENDED_BALLOT_TYPEHASH",
      "outputs": [
        {
          "internalType": "bytes32",
          "name": "",
          "type": "bytes32"
        }
      ],
      "stateMutability": "view",
      "type": "function"
    },
    {
      "inputs": [
        {
          "internalType": "address[]",
          "name": "targets",
          "type": "address[]"
        },
        {
          "internalType": "uint256[]",
          "name": "values",
          "type": "uint256[]"
        },
        {
          "internalType": "bytes[]",
          "name": "calldatas",
          "type": "bytes[]"
        },
        {
          "internalType": "bytes32",
          "name": "descriptionHash",
          "type": "bytes32"
        }
      ],
      "name": "cancel",
      "outputs": [
        {
          "internalType": "uint256",
          "name": "",
          "type": "uint256"
        }
      ],
      "stateMutability": "nonpayable",
      "type": "function"
    },
    {
      "inputs": [
        {
          "internalType": "uint256",
          "name": "proposalId",
          "type": "uint256"
        },
        {
          "internalType": "uint8",
          "name": "support",
          "type": "uint8"
        }
      ],
      "name": "castVote",
      "outputs": [
        {
          "internalType": "uint256",
          "name": "",
          "type": "uint256"
        }
      ],
      "stateMutability": "nonpayable",
      "type": "function"
    },
    {
      "inputs": [
        {
          "internalType": "uint256",
          "name": "proposalId",
          "type": "uint256"
        },
        {
          "internalType": "uint8",
          "name": "support",
          "type": "uint8"
        },
        {
          "internalType": "address",
          "name": "voter",
          "type": "address"
        },
        {
          "internalType": "bytes",
          "name": "signature",
          "type": "bytes"
        }
      ],
      "name": "castVoteBySig",
      "outputs": [
        {
          "internalType": "uint256",
          "name": "",
          "type": "uint256"
        }
      ],
      "stateMutability": "nonpayable",
      "type": "function"
    },
    {
      "inputs": [
        {
          "internalType": "uint256",
          "name": "proposalId",
          "type": "uint256"
        },
        {
          "internalType": "uint8",
          "name": "support",
          "type": "uint8"
        },
        {
          "internalType": "string",
          "name": "reason",
          "type": "string"
        }
      ],
      "name": "castVoteWithReason",
      "outputs": [
        {
          "internalType": "uint256",
          "name": "",
          "type": "uint256"
        }
      ],
      "stateMutability": "nonpayable",
      "type": "function"
    },
    {
      "inputs": [
        {
          "internalType": "uint256",
          "name": "proposalId",
          "type": "uint256"
        },
        {
          "internalType": "uint8",
          "name": "support",
          "type": "uint8"
        },
        {
          "internalType": "string",
          "name": "reason",
          "type": "string"
        },
        {
          "internalType": "bytes",
          "name": "params",
          "type": "bytes"
        }
      ],
      "name": "castVoteWithReasonAndParams",
      "outputs": [
        {
          "internalType": "uint256",
          "name": "",
          "type": "uint256"
        }
      ],
      "stateMutability": "nonpayable",
      "type": "function"
    },
    {
      "inputs": [
        {
          "internalType": "uint256",
          "name": "proposalId",
          "type": "uint256"
        },
        {
          "internalType": "uint8",
          "name": "support",
          "type": "uint8"
        },
        {
          "internalType": "address",
          "name": "voter",
          "type": "address"
        },
        {
          "internalType": "string",
          "name": "reason",
          "type": "string"
        },
        {
          "internalType": "bytes",
          "name": "params",
          "type": "bytes"
        },
        {
          "internalType": "bytes",
          "name": "signature",
          "type": "bytes"
        }
      ],
      "name": "castVoteWithReasonAndParamsBySig",
      "outputs": [
        {
          "internalType": "uint256",
          "name": "",
          "type": "uint256"
        }
      ],
      "stateMutability": "nonpayable",
      "type": "function"
    },
    {
      "inputs": [],
      "name": "certContract",
      "outputs": [
        {
          "internalType": "address",
          "name": "",
          "type": "address"
        }
      ],
      "stateMutability": "view",
      "type": "function"
    },
    {
      "inputs": [],
      "name": "clock",
      "outputs": [
        {
          "internalType": "uint48",
          "name": "",
          "type": "uint48"
        }
      ],
      "stateMutability": "view",
      "type": "function"
    },
    {
      "inputs": [],
      "name": "eip712Domain",
      "outputs": [
        {
          "internalType": "bytes1",
          "name": "fields",
          "type": "bytes1"
        },
        {
          "internalType": "string",
          "name": "name",
          "type": "string"
        },
        {
          "internalType": "string",
          "name": "version",
          "type": "string"
        },
        {
          "internalType": "uint256",
          "name": "chainId",
          "type": "uint256"
        },
        {
          "internalType": "address",
          "name": "verifyingContract",
          "type": "address"
        },
        {
          "internalType": "bytes32",
          "name": "salt",
          "type": "bytes32"
        },
        {
          "internalType": "uint256[]",
          "name": "extensions",
          "type": "uint256[]"
        }
      ],
      "stateMutability": "view",
      "type": "function"
    },
    {
      "inputs": [
        {
          "internalType": "address[]",
          "name": "targets",
          "type": "address[]"
        },
        {
          "internalType": "uint256[]",
          "name": "values",
          "type": "uint256[]"
        },
        {
          "internalType": "bytes[]",
          "name": "calldatas",
          "type": "bytes[]"
        },
        {
          "internalType": "bytes32",
          "name": "descriptionHash",
          "type": "bytes32"
        }
      ],
      "name": "execute",
      "outputs": [
        {
          "internalType": "uint256",
          "name": "",
          "type": "uint256"
        }
      ],
      "stateMutability": "payable",
      "type": "function"
    },
    {
      "inputs": [
        {
          "internalType": "address",
          "name": "account",
          "type": "address"
        },
        {
          "internalType": "uint256",
          "name": "timepoint",
          "type": "uint256"
        }
      ],
      "name": "getVotes",
      "outputs": [
        {
          "internalType": "uint256",
          "name": "",
          "type": "uint256"
        }
      ],
      "stateMutability": "view",
      "type": "function"
    },
    {
      "inputs": [
        {
          "internalType": "address",
          "name": "account",
          "type": "address"
        },
        {
          "internalType": "uint256",
          "name": "timepoint",
          "type": "uint256"
        },
        {
          "internalType": "bytes",
          "name": "params",
          "type": "bytes"
        }
      ],
      "name": "getVotesWithParams",
      "outputs": [
        {
          "internalType": "uint256",
          "name": "",
          "type": "uint256"
        }
      ],
      "stateMutability": "view",
      "type": "function"
    },
    {
      "inputs": [
        {
          "internalType": "uint256",
          "name": "proposalId",
          "type": "uint256"
        },
        {
          "internalType": "address",
          "name": "account",
          "type": "address"
        }
      ],
      "name": "hasVoted",
      "outputs": [
        {
          "internalType": "bool",
          "name": "",
          "type": "bool"
        }
      ],
      "stateMutability": "view",
      "type": "function"
    },
    {
      "inputs": [
        {
          "internalType": "address[]",
          "name": "targets",
          "type": "address[]"
        },
        {
          "internalType": "uint256[]",
          "name": "values",
          "type": "uint256[]"
        },
        {
          "internalType": "bytes[]",
          "name": "calldatas",
          "type": "bytes[]"
        },
        {
          "internalType": "bytes32",
          "name": "descriptionHash",
          "type": "bytes32"
        }
      ],
      "name": "hashProposal",
      "outputs": [
        {
          "internalType": "uint256",
          "name": "",
          "type": "uint256"
        }
      ],
      "stateMutability": "pure",
      "type": "function"
    },
    {
      "inputs": [],
      "name": "name",
      "outputs": [
        {
          "internalType": "string",
          "name": "",
          "type": "string"
        }
      ],
      "stateMutability": "view",
      "type": "function"
    },
    {
      "inputs": [
        {
          "internalType": "address",
          "name": "owner",
          "type": "address"
        }
      ],
      "name": "nonces",
      "outputs": [
        {
          "internalType": "uint256",
          "name": "",
          "type": "uint256"
        }
      ],
      "stateMutability": "view",
      "type": "function"
    },
    {
      "inputs": [
        {
          "internalType": "address",
          "name": "",
          "type": "address"
        },
        {
          "internalType": "address",
          "name": "",
          "type": "address"
        },
        {
          "internalType": "uint256[]",
          "name": "",
          "type": "uint256[]"
        },
        {
          "internalType": "uint256[]",
          "name": "",
          "type": "uint256[]"
        },
        {
          "internalType": "bytes",
          "name": "",
          "type": "bytes"
        }
      ],
      "name": "onERC1155BatchReceived",
      "outputs": [
        {
          "internalType": "bytes4",
          "name": "",
          "type": "bytes4"
        }
      ],
      "stateMutability": "nonpayable",
      "type": "function"
    },
    {
      "inputs": [
        {
          "internalType": "address",
          "name": "",
          "type": "address"
        },
        {
          "internalType": "address",
          "name": "",
          "type": "address"
        },
        {
          "internalType": "uint256",
          "name": "",
          "type": "uint256"
        },
        {
          "internalType": "uint256",
          "name": "",
          "type": "uint256"
        },
        {
          "internalType": "bytes",
          "name": "",
          "type": "bytes"
        }
      ],
      "name": "onERC1155Received",
      "outputs": [
        {
          "internalType": "bytes4",
          "name": "",
          "type": "bytes4"
        }
      ],
      "stateMutability": "nonpayable",
      "type": "function"
    },
    {
      "inputs": [
        {
          "internalType": "address",
          "name": "",
          "type": "address"
        },
        {
          "internalType": "address",
          "name": "",
          "type": "address"
        },
        {
          "internalType": "uint256",
          "name": "",
          "type": "uint256"
        },
        {
          "internalType": "bytes",
          "name": "",
          "type": "bytes"
        }
      ],
      "name": "onERC721Received",
      "outputs": [
        {
          "internalType": "bytes4",
          "name": "",
          "type": "bytes4"
        }
      ],
      "stateMutability": "nonpayable",
      "type": "function"
    },
    {
      "inputs": [
        {
          "internalType": "uint256",
          "name": "proposalId",
          "type": "uint256"
        }
      ],
      "name": "proposalDeadline",
      "outputs": [
        {
          "internalType": "uint256",
          "name": "",
          "type": "uint256"
        }
      ],
      "stateMutability": "view",
      "type": "function"
    },
    {
      "inputs": [
        {
          "internalType": "uint256",
          "name": "proposalId",
          "type": "uint256"
        }
      ],
      "name": "proposalEta",
      "outputs": [
        {
          "internalType": "uint256",
          "name": "",
          "type": "uint256"
        }
      ],
      "stateMutability": "view",
      "type": "function"
    },
    {
      "inputs": [
        {
          "internalType": "uint256",
          "name": "proposalId",
          "type": "uint256"
        }
      ],
      "name": "proposalNeedsQueuing",
      "outputs": [
        {
          "internalType": "bool",
          "name": "",
          "type": "bool"
        }
      ],
      "stateMutability": "view",
      "type": "function"
    },
    {
      "inputs": [
        {
          "internalType": "uint256",
          "name": "proposalId",
          "type": "uint256"
        }
      ],
      "name": "proposalProposer",
      "outputs": [
        {
          "internalType": "address",
          "name": "",
          "type": "address"
        }
      ],
      "stateMutability": "view",
      "type": "function"
    },
    {
      "inputs": [
        {
          "internalType": "uint256",
          "name": "proposalId",
          "type": "uint256"
        }
      ],
      "name": "proposalSnapshot",
      "outputs": [
        {
          "internalType": "uint256",
          "name": "",
          "type": "uint256"
        }
      ],
      "stateMutability": "view",
      "type": "function"
    },
    {
      "inputs": [],
      "name": "proposalThreshold",
      "outputs": [
        {
          "internalType": "uint256",
          "name": "",
          "type": "uint256"
        }
      ],
      "stateMutability": "pure",
      "type": "function"
    },
    {
      "inputs": [
        {
          "internalType": "uint256",
          "name": "proposalId",
          "type": "uint256"
        }
      ],
      "name": "proposalVotes",
      "outputs": [
        {
          "internalType": "uint256",
          "name": "againstVotes",
          "type": "uint256"
        },
        {
          "internalType": "uint256",
          "name": "forVotes",
          "type": "uint256"
        },
        {
          "internalType": "uint256",
          "name": "abstainVotes",
          "type": "uint256"
        }
      ],
      "stateMutability": "view",
      "type": "function"
    },
    {
      "inputs": [
        {
          "internalType": "address[]",
          "name": "targets",
          "type": "address[]"
        },
        {
          "internalType": "uint256[]",
          "name": "values",
          "type": "uint256[]"
        },
        {
          "internalType": "bytes[]",
          "name": "calldatas",
          "type": "bytes[]"
        },
        {
          "internalType": "string",
          "name": "description",
          "type": "string"
        }
      ],
      "name": "propose",
      "outputs": [
        {
          "internalType": "uint256",
          "name": "",
          "type": "uint256"
        }
      ],
      "stateMutability": "nonpayable",
      "type": "function"
    },
    {
      "inputs": [
        {
          "internalType": "address[]",
          "name": "targets",
          "type": "address[]"
        },
        {
          "internalType": "uint256[]",
          "name": "values",
          "type": "uint256[]"
        },
        {
          "internalType": "bytes[]",
          "name": "calldatas",
          "type": "bytes[]"
        },
        {
          "internalType": "bytes32",
          "name": "descriptionHash",
          "type": "bytes32"
        }
      ],
      "name": "queue",
      "outputs": [
        {
          "internalType": "uint256",
          "name": "",
          "type": "uint256"
        }
      ],
      "stateMutability": "nonpayable",
      "type": "function"
    },
    {
      "inputs": [
        {
          "internalType": "uint256",
          "name": "timepoint",
          "type": "uint256"
        }
      ],
      "name": "quorum",
      "outputs": [
        {
          "internalType": "uint256",
          "name": "",
          "type": "uint256"
        }
      ],
      "stateMutability": "view",
      "type": "function"
    },
    {
      "inputs": [],
      "name": "quorumDenominator",
      "outputs": [
        {
          "internalType": "uint256",
          "name": "",
          "type": "uint256"
        }
      ],
      "stateMutability": "view",
      "type": "function"
    },
    {
      "inputs": [
        {
          "internalType": "uint256",
          "name": "timepoint",
          "type": "uint256"
        }
      ],
      "name": "quorumNumerator",
      "outputs": [
        {
          "internalType": "uint256",
          "name": "",
          "type": "uint256"
        }
      ],
      "stateMutability": "view",
      "type": "function"
    },
    {
      "inputs": [],
      "name": "quorumNumerator",
      "outputs": [
        {
          "internalType": "uint256",
          "name": "",
          "type": "uint256"
        }
      ],
      "stateMutability": "view",
      "type": "function"
    },
    {
      "inputs": [
        {
          "internalType": "address",
          "name": "target",
          "type": "address"
        },
        {
          "internalType": "uint256",
          "name": "value",
          "type": "uint256"
        },
        {
          "internalType": "bytes",
          "name": "data",
          "type": "bytes"
        }
      ],
      "name": "relay",
      "outputs": [],
      "stateMutability": "payable",
      "type": "function"
    },
    {
      "inputs": [
        {
          "internalType": "address",
          "name": "_certAddress",
          "type": "address"
        }
      ],
      "name": "setCertContract",
      "outputs": [],
      "stateMutability": "nonpayable",
      "type": "function"
    },
    {
      "inputs": [
        {
          "internalType": "uint256",
          "name": "proposalId",
          "type": "uint256"
        }
      ],
      "name": "state",
      "outputs": [
        {
          "internalType": "enum IGovernor.ProposalState",
          "name": "",
          "type": "uint8"
        }
      ],
      "stateMutability": "view",
      "type": "function"
    },
    {
      "inputs": [
        {
          "internalType": "bytes4",
          "name": "interfaceId",
          "type": "bytes4"
        }
      ],
      "name": "supportsInterface",
      "outputs": [
        {
          "internalType": "bool",
          "name": "",
          "type": "bool"
        }
      ],
      "stateMutability": "view",
      "type": "function"
    },
    {
      "inputs": [],
      "name": "timelock",
      "outputs": [
        {
          "internalType": "address",
          "name": "",
          "type": "address"
        }
      ],
      "stateMutability": "view",
      "type": "function"
    },
    {
      "inputs": [],
      "name": "token",
      "outputs": [
        {
          "internalType": "contract IERC5805",
          "name": "",
          "type": "address"
        }
      ],
      "stateMutability": "view",
      "type": "function"
    },
    {
      "inputs": [],
      "name": "transferCertOwnership",
      "outputs": [],
      "stateMutability": "nonpayable",
      "type": "function"
    },
    {
      "inputs": [
        {
          "internalType": "uint256",
          "name": "newQuorumNumerator",
          "type": "uint256"
        }
      ],
      "name": "updateQuorumNumerator",
      "outputs": [],
      "stateMutability": "nonpayable",
      "type": "function"
    },
    {
      "inputs": [
        {
          "internalType": "contract TimelockController",
          "name": "newTimelock",
          "type": "address"
        }
      ],
      "name": "updateTimelock",
      "outputs": [],
      "stateMutability": "nonpayable",
      "type": "function"
    },
    {
      "inputs": [],
      "name": "version",
      "outputs": [
        {
          "internalType": "string",
          "name": "",
          "type": "string"
        }
      ],
      "stateMutability": "view",
      "type": "function"
    },
    {
      "inputs": [],
      "name": "votingDelay",
      "outputs": [
        {
          "internalType": "uint256",
          "name": "",
          "type": "uint256"
        }
      ],
      "stateMutability": "pure",
      "type": "function"
    },
    {
      "inputs": [],
      "name": "votingPeriod",
      "outputs": [
        {
          "internalType": "uint256",
          "name": "",
          "type": "uint256"
        }
      ],
      "stateMutability": "pure",
      "type": "function"
    },
    {
      "stateMutability": "payable",
      "type": "receive"
    }
  ],
  "bytecode": "0x6101806040523480156200001257600080fd5b5060405162004a9038038062004a9083398101604081905262000035916200060c565b806004836040518060400160405280600a81526020016926bca3b7bb32b93737b960b11b815250806200006d6200015f60201b60201c565b6200007a8260006200017a565b610120526200008b8160016200017a565b61014052815160208084019190912060e052815190820120610100524660a0526200011960e05161010051604080517f8b73c3c69bb8fe3d512ecc4cf759cc79239f7b179b0ffacaa9a75d522b39400f60208201529081019290925260608201524660808201523060a082015260009060c00160405160208183030381529060405280519060200120905090565b60805250503060c0526003620001308282620006f0565b50506001600160a01b0316610160526200014a81620001b3565b50620001568162000257565b5050506200087d565b6040805180820190915260018152603160f81b602082015290565b60006020835110156200019a576200019283620002c0565b9050620001ad565b81620001a78482620006f0565b5060ff90505b92915050565b606480821115620001e65760405163243e544560e01b815260048101839052602481018290526044015b60405180910390fd5b6000620001f262000303565b905062000217620002026200031f565b6200020d85620003a1565b60089190620003db565b505060408051828152602081018590527f0553476bf02ef2726e8ce5ced78d63e26e602e4a2257b1f559418e24b4633997910160405180910390a1505050565b600954604080516001600160a01b03928316815291831660208301527f08f74ea46ef7894f65eabfb5e6e695de773a000b47c529ab559178069b226401910160405180910390a1600980546001600160a01b0319166001600160a01b0392909216919091179055565b600080829050601f81511115620002ee578260405163305a27a960e01b8152600401620001dd9190620007bc565b8051620002fb826200080c565b179392505050565b6000620003116008620003f8565b6001600160d01b0316905090565b60006200032c6101605190565b6001600160a01b03166391ddadf46040518163ffffffff1660e01b8152600401602060405180830381865afa92505050801562000388575060408051601f3d908101601f19168201909252620003859181019062000831565b60015b6200039c576200039762000448565b905090565b919050565b60006001600160d01b03821115620003d7576040516306dfcc6560e41b815260d0600482015260248101839052604401620001dd565b5090565b600080620003eb85858562000455565b915091505b935093915050565b805460009080156200043e576200042483620004166001846200085b565b600091825260209091200190565b54660100000000000090046001600160d01b031662000441565b60005b9392505050565b60006200039743620005be565b8254600090819080156200055f5760006200047787620004166001856200085b565b805490915065ffffffffffff80821691660100000000000090046001600160d01b0316908816821115620004be57604051632520601d60e01b815260040160405180910390fd5b8765ffffffffffff168265ffffffffffff1603620004fc57825465ffffffffffff1666010000000000006001600160d01b0389160217835562000550565b6040805180820190915265ffffffffffff808a1682526001600160d01b03808a1660208085019182528d54600181018f5560008f815291909120945191519092166601000000000000029216919091179101555b9450859350620003f092505050565b50506040805180820190915265ffffffffffff80851682526001600160d01b0380851660208085019182528854600181018a5560008a8152918220955192519093166601000000000000029190931617920191909155905081620003f0565b600065ffffffffffff821115620003d7576040516306dfcc6560e41b81526030600482015260248101839052604401620001dd565b6001600160a01b03811681146200060957600080fd5b50565b600080604083850312156200062057600080fd5b82516200062d81620005f3565b60208401519092506200064081620005f3565b809150509250929050565b634e487b7160e01b600052604160045260246000fd5b600181811c908216806200067657607f821691505b6020821081036200069757634e487b7160e01b600052602260045260246000fd5b50919050565b601f821115620006eb57600081815260208120601f850160051c81016020861015620006c65750805b601f850160051c820191505b81811015620006e757828155600101620006d2565b5050505b505050565b81516001600160401b038111156200070c576200070c6200064b565b62000724816200071d845462000661565b846200069d565b602080601f8311600181146200075c5760008415620007435750858301515b600019600386901b1c1916600185901b178555620006e7565b600085815260208120601f198616915b828110156200078d578886015182559484019460019091019084016200076c565b5085821015620007ac5787850151600019600388901b60f8161c191681555b5050505050600190811b01905550565b600060208083528351808285015260005b81811015620007eb57858101830151858201604001528201620007cd565b506000604082860101526040601f19601f8301168501019250505092915050565b80516020808301519190811015620006975760001960209190910360031b1b16919050565b6000602082840312156200084457600080fd5b815165ffffffffffff811681146200044157600080fd5b81810381811115620001ad57634e487b7160e01b600052601160045260246000fd5b60805160a05160c05160e051610100516101205161014051610160516141ad620008e360003960006115b001526000612062015260006120350152600061275b015260006127330152600061268e015260006126b8015260006126e201526141ad6000f3fe6080604052600436106102275760003560e01c806301ffc9a71461026357806302a251a31461029857806306f3f9e6146102b657806306fdde03146102d6578063143489d0146102f8578063150b7a0214610325578063160cbed71461035e5780632656227d1461037e5780632d63f693146103915780632fe3e261146103b15780633932abb1146103d35780633e4f49e6146103e75780634385963214610414578063452115d61461045e5780634bf5d7e91461047e578063544ffc9c1461049357806354fd4d50146104dc57806356781388146105065780635b8d0e0d146105265780635f398a141461054657806360c4247f1461056657806362bf03f1146105865780637b3c71d3146105a65780637d5e81e2146105c65780637ecebe00146105e657806384b0196e1461061c5780638ff262e31461064457806391ddadf41461066457806397c3d334146106905780639a802a6d146106a4578063a7713a70146106c4578063a890c910146106d9578063a9a95294146106f9578063ab58fb8e14610719578063aedf65c514610739578063b58131b014610759578063bc197c811461076d578063c01f9e371461078d578063c28bc2fa146107ad578063c52b0912146107c0578063c59057e4146107d5578063d33219b4146107f5578063dd4e2ba51461080a578063deaaa7cc14610850578063eb9019d414610872578063f23a6e6114610892578063f8ce560a146108b2578063fc0c546a146108d257600080fd5b3661025e57306102356108e7565b6001600160a01b03161461025c57604051637485328f60e11b815260040160405180910390fd5b005b600080fd5b34801561026f57600080fd5b5061028361027e3660046130aa565b6108f6565b60405190151581526020015b60405180910390f35b3480156102a457600080fd5b50600a5b60405190815260200161028f565b3480156102c257600080fd5b5061025c6102d13660046130d4565b610948565b3480156102e257600080fd5b506102eb61095c565b60405161028f919061313d565b34801561030457600080fd5b506103186103133660046130d4565b6109ee565b60405161028f9190613150565b34801561033157600080fd5b50610345610340366004613244565b610a09565b6040516001600160e01b0319909116815260200161028f565b34801561036a57600080fd5b506102a861037936600461341b565b610a4c565b6102a861038c36600461341b565b610b1b565b34801561039d57600080fd5b506102a86103ac3660046130d4565b610c8f565b3480156103bd57600080fd5b506102a860008051602061415883398151915281565b3480156103df57600080fd5b5060016102a8565b3480156103f357600080fd5b506104076104023660046130d4565b610cb0565b60405161028f91906134e2565b34801561042057600080fd5b5061028361042f3660046134f0565b60008281526007602090815260408083206001600160a01b038516845260030190915290205460ff1692915050565b34801561046a57600080fd5b506102a861047936600461341b565b610cbb565b34801561048a57600080fd5b506102eb610d36565b34801561049f57600080fd5b506104cd6104ae3660046130d4565b6000908152600760205260409020805460018201546002909201549092565b60405161028f93929190613520565b3480156104e857600080fd5b506040805180820190915260018152603160f81b60208201526102eb565b34801561051257600080fd5b506102a8610521366004613547565b610ddf565b34801561053257600080fd5b506102a86105413660046135bb565b610e08565b34801561055257600080fd5b506102a8610561366004613675565b610f2e565b34801561057257600080fd5b506102a86105813660046130d4565b610f83565b34801561059257600080fd5b50600b54610318906001600160a01b031681565b3480156105b257600080fd5b506102a86105c13660046136f8565b611011565b3480156105d257600080fd5b506102a86105e1366004613751565b611059565b3480156105f257600080fd5b506102a8610601366004613805565b6001600160a01b031660009081526002602052604090205490565b34801561062857600080fd5b50610631611094565b60405161028f979695949392919061385d565b34801561065057600080fd5b506102a861065f3660046138cd565b6110da565b34801561067057600080fd5b50610679611173565b60405165ffffffffffff909116815260200161028f565b34801561069c57600080fd5b5060646102a8565b3480156106b057600080fd5b506102a86106bf36600461391e565b6111e2565b3480156106d057600080fd5b506102a86111f9565b3480156106e557600080fd5b5061025c6106f4366004613805565b611213565b34801561070557600080fd5b506102836107143660046130d4565b611224565b34801561072557600080fd5b506102a86107343660046130d4565b61122d565b34801561074557600080fd5b5061025c610754366004613805565b61124a565b34801561076557600080fd5b5060006102a8565b34801561077957600080fd5b50610345610788366004613976565b6112c9565b34801561079957600080fd5b506102a86107a83660046130d4565b61130d565b61025c6107bb366004613a09565b611350565b3480156107cc57600080fd5b5061025c6113d0565b3480156107e157600080fd5b506102a86107f036600461341b565b611469565b34801561080157600080fd5b506103186114a3565b34801561081657600080fd5b506040805180820190915260208082527f737570706f72743d627261766f2671756f72756d3d666f722c6162737461696e908201526102eb565b34801561085c57600080fd5b506102a860008051602061413883398151915281565b34801561087e57600080fd5b506102a861088d366004613a4c565b6114b2565b34801561089e57600080fd5b506103456108ad366004613a78565b6114d3565b3480156108be57600080fd5b506102a86108cd3660046130d4565b611517565b3480156108de57600080fd5b506103186115ae565b60006108f16114a3565b905090565b60006001600160e01b031982166332a2ad4360e11b148061092757506001600160e01b03198216630271189760e51b145b8061094257506301ffc9a760e01b6001600160e01b03198316145b92915050565b6109506115d2565b6109598161164c565b50565b60606003805461096b90613ae0565b80601f016020809104026020016040519081016040528092919081815260200182805461099790613ae0565b80156109e45780601f106109b9576101008083540402835291602001916109e4565b820191906000526020600020905b8154815290600101906020018083116109c757829003601f168201915b5050505050905090565b6000908152600460205260409020546001600160a01b031690565b600030610a146108e7565b6001600160a01b031614610a3b57604051637485328f60e11b815260040160405180910390fd5b50630a85bd0160e11b949350505050565b600080610a5b86868686611469565b9050610a7081610a6b60046116e2565b611705565b506000610a808288888888611744565b905065ffffffffffff811615610af857600082815260046020908152604091829020600101805465ffffffffffff191665ffffffffffff85169081179091558251858152918201527f9a2e42fd6722813d69113e7d0079d3d940171428df7373df9c7f7617cfda2892910160405180910390a1610b11565b604051634844252360e11b815260040160405180910390fd5b5095945050505050565b600080610b2a86868686611469565b9050610b4a81610b3a60056116e2565b610b4460046116e2565b17611705565b506000818152600460205260409020805460ff60f01b1916600160f01b17905530610b736108e7565b6001600160a01b031614610c055760005b8651811015610c0357306001600160a01b0316878281518110610ba957610ba9613b1a565b60200260200101516001600160a01b031603610bf357610bf3858281518110610bd457610bd4613b1a565b602002602001015180519060200120600561175390919063ffffffff16565b610bfc81613b46565b9050610b84565b505b610c1281878787876117b5565b30610c1b6108e7565b6001600160a01b031614158015610c4757506005546001600160801b03808216600160801b9092041614155b15610c525760006005555b6040518181527f712ae1383f79ac853f8d882153778e0260ef8f03b504e2866e0593e04d2b291f906020015b60405180910390a195945050505050565b600090815260046020526040902054600160a01b900465ffffffffffff1690565b600061094282611940565b600080610cca86868686611469565b9050610cda81610a6b60006116e2565b50610ce4816109ee565b6001600160a01b0316336001600160a01b031614610d20573360405163233d98e360e01b8152600401610d179190613150565b60405180910390fd5b610d2c86868686611a7f565b9695505050505050565b6060610d406115ae565b6001600160a01b0316634bf5d7e96040518163ffffffff1660e01b8152600401600060405180830381865afa925050508015610d9e57506040513d6000823e601f3d908101601f19168201604052610d9b9190810190613b5f565b60015b610dda575060408051808201909152601d81527f6d6f64653d626c6f636b6e756d6265722666726f6d3d64656661756c74000000602082015290565b919050565b600080339050610e0084828560405180602001604052806000815250611a96565b949350505050565b600080610ebb87610eb56000805160206141588339815191528c8c8c610e2d8e611ab9565b8d8d604051610e3d929190613bcc565b60405180910390208c80519060200120604051602001610e9a9796959493929190968752602087019590955260ff9390931660408601526001600160a01b03919091166060850152608084015260a083015260c082015260e00190565b60405160208183030381529060405280519060200120611adc565b85611b09565b905080610edd57866040516394ab6c0760e01b8152600401610d179190613150565b610f2189888a89898080601f0160208091040260200160405190810160405280939291908181526020018383808284376000920191909152508b9250611b7d915050565b9998505050505050505050565b600080339050610f7887828888888080601f0160208091040260200160405190810160405280939291908181526020018383808284376000920191909152508a9250611b7d915050565b979650505050505050565b600880546000918290610f97600184613bdc565b81548110610fa757610fa7613b1a565b6000918252602090912001805490915065ffffffffffff811690600160301b90046001600160d01b0316858211610fea576001600160d01b031695945050505050565b610ffe610ff687611c5f565b600890611c91565b6001600160d01b03169695505050505050565b600080339050610d2c86828787878080601f016020809104026020016040519081016040528093929190818152602001838380828437600092019190915250611a9692505050565b6000336110668184611d46565b611085578060405163d9b3955760e01b8152600401610d179190613150565b6000610f788787878786611e37565b6000606080600080600060606110a861202e565b6110b061205b565b60408051600080825260208201909252600f60f81b9b939a50919850469750309650945092509050565b60008061113684610eb56000805160206141388339815191528989896110ff8b611ab9565b60408051602081019690965285019390935260ff90911660608401526001600160a01b0316608083015260a082015260c001610e9a565b90508061115857836040516394ab6c0760e01b8152600401610d179190613150565b610d2c86858760405180602001604052806000815250611a96565b600061117d6115ae565b6001600160a01b03166391ddadf46040518163ffffffff1660e01b8152600401602060405180830381865afa9250505080156111d6575060408051601f3d908101601f191682019092526111d391810190613bf6565b60015b610dda576108f1612088565b60006111ef848484612093565b90505b9392505050565b60006112056008612110565b6001600160d01b0316905090565b61121b6115d2565b61095981612149565b60006001610942565b60009081526004602052604090206001015465ffffffffffff1690565b6112526115d2565b600b546001600160a01b0316156112a75760405162461bcd60e51b815260206004820152601960248201527810d95c9d0818dbdb9d1c9858dd08185b1c9958591e481cd95d603a1b6044820152606401610d17565b600b80546001600160a01b0319166001600160a01b0392909216919091179055565b6000306112d46108e7565b6001600160a01b0316146112fb57604051637485328f60e11b815260040160405180910390fd5b5063bc197c8160e01b95945050505050565b60008181526004602052604081205461134290600160d01b810463ffffffff1690600160a01b900465ffffffffffff16613c1e565b65ffffffffffff1692915050565b6113586115d2565b600080856001600160a01b0316858585604051611376929190613bcc565b60006040518083038185875af1925050503d80600081146113b3576040519150601f19603f3d011682016040523d82523d6000602084013e6113b8565b606091505b50915091506113c782826121b2565b50505050505050565b6113d86115d2565b600b546001600160a01b03166114005760405162461bcd60e51b8152600401610d1790613c3d565b600b546001600160a01b031663f2fde38b6114196108e7565b6040518263ffffffff1660e01b81526004016114359190613150565b600060405180830381600087803b15801561144f57600080fd5b505af1158015611463573d6000803e3d6000fd5b50505050565b6000848484846040516020016114829493929190613cfa565b60408051601f19818403018152919052805160209091012095945050505050565b6009546001600160a01b031690565b60006111f283836114ce60408051602081019091526000815290565b612093565b6000306114de6108e7565b6001600160a01b03161461150557604051637485328f60e11b815260040160405180910390fd5b5063f23a6e6160e01b95945050505050565b6000606461152483610f83565b61152c6115ae565b6001600160a01b0316638e539e8c856040518263ffffffff1660e01b815260040161155991815260200190565b602060405180830381865afa158015611576573d6000803e3d6000fd5b505050506040513d601f19601f8201168201806040525081019061159a9190613d45565b6115a49190613d5e565b6109429190613d8b565b7f000000000000000000000000000000000000000000000000000000000000000090565b336115db6108e7565b6001600160a01b03161461160457336040516347096e4760e01b8152600401610d179190613150565b3061160d6108e7565b6001600160a01b03161461164a576000803660405161162d929190613bcc565b604051809103902090505b8061164360056121ce565b0361163857505b565b6064808211156116795760405163243e544560e01b81526004810183905260248101829052604401610d17565b60006116836111f9565b90506116a2611690611173565b61169985612234565b60089190612263565b505060408051828152602081018590527f0553476bf02ef2726e8ce5ced78d63e26e602e4a2257b1f559418e24b4633997910160405180910390a1505050565b60008160078111156116f6576116f66134aa565b600160ff919091161b92915050565b60008061171184610cb0565b905060008361171f836116e2565b16036111f2578381846040516331b75e4d60e01b8152600401610d1793929190613dad565b6000610d2c868686868661227e565b81546001600160801b03600160801b82048116918116600183019091160361177f5761177f604161241d565b6001600160801b03808216600090815260018086016020526040909120939093558354919092018216600160801b029116179055565b6117c2858585858561242f565b60005b845181101561193857600b5485516001600160a01b03909116908690839081106117f1576117f1613b1a565b60200260200101516001600160a01b03160361192657600b546001600160a01b031661182f5760405162461bcd60e51b8152600401610d1790613c3d565b600085828151811061184357611843613b1a565b60200260200101516001600160a01b031685838151811061186657611866613b1a565b602002602001015185848151811061188057611880613b1a565b60200260200101516040516118959190613dcf565b60006040518083038185875af1925050503d80600081146118d2576040519150601f19603f3d011682016040523d82523d6000602084013e6118d7565b606091505b50509050806119245760405162461bcd60e51b815260206004820152601960248201527811dbdd995c9b9bdc88195e1958dd5d1a5bdb8819985a5b1959603a1b6044820152606401610d17565b505b8061193081613b46565b9150506117c5565b505050505050565b60008061194c836124b9565b90506005816007811115611962576119626134aa565b1461196d5792915050565b6000838152600a602052604090819020546009549151632c258a9f60e11b81526004810182905290916001600160a01b03169063584b153e90602401602060405180830381865afa1580156119c6573d6000803e3d6000fd5b505050506040513d601f19601f820116820180604052508101906119ea9190613deb565b156119f9575060059392505050565b600954604051632ab0f52960e01b8152600481018390526001600160a01b0390911690632ab0f52990602401602060405180830381865afa158015611a42573d6000803e3d6000fd5b505050506040513d601f19601f82011682018060405250810190611a669190613deb565b15611a75575060079392505050565b5060029392505050565b6000611a8d858585856125e2565b95945050505050565b6000611a8d85858585611ab460408051602081019091526000815290565b611b7d565b6001600160a01b0316600090815260026020526040902080546001810190915590565b6000610942611ae9612681565b8360405161190160f01b8152600281019290925260228201526042902090565b6000836001600160a01b03163b600003611b6b57600080611b2a85856127ac565b5090925090506000816003811115611b4457611b446134aa565b148015611b625750856001600160a01b0316826001600160a01b0316145b925050506111f2565b611b768484846127f9565b90506111f2565b6000611b8d86610a6b60016116e2565b506000611ba386611b9d89610c8f565b85612093565b90506000611bb488888885886128d4565b90508351600003611c0b57866001600160a01b03167fb8e138887d0aa13bab447e82de9d5c1777041ecd21ca36ba824ff1e6c07ddda489888489604051611bfe9493929190613e0d565b60405180910390a2610f78565b866001600160a01b03167fe2babfbac5889a709b63bb7f598b324e08bc5a4fb9ec647fb3cbc9ec07eb87128988848989604051611c4c959493929190613e35565b60405180910390a2979650505050505050565b600065ffffffffffff821115611c8d576030826040516306dfcc6560e41b8152600401610d17929190613e6f565b5090565b815460009081816005811115611cf0576000611cac846129ce565b611cb69085613bdc565b60008881526020902090915081015465ffffffffffff9081169087161015611ce057809150611cee565b611ceb816001613e82565b92505b505b6000611cfe87878585612b21565b90508015611d3957611d2387611d15600184613bdc565b600091825260209091200190565b54600160301b90046001600160d01b0316610f78565b6000979650505050505050565b80516000906034811015611d5e576001915050610942565b82810160131901516001600160a01b031981166b046e0e4dee0dee6cae47a60f60a31b14611d9157600192505050610942565b600080611d9f602885613bdc565b90505b83811015611e1657600080611dd6888481518110611dc257611dc2613b1a565b01602001516001600160f81b031916612b83565b9150915081611dee5760019650505050505050610942565b8060ff166004856001600160a01b0316901b179350505080611e0f90613b46565b9050611da2565b50856001600160a01b0316816001600160a01b031614935050505092915050565b6000611e4c8686868680519060200120611469565b905084518651141580611e6157508351865114155b80611e6b57508551155b15611e9257855184518651604051630447b05d60e41b8152600401610d1793929190613520565b600081815260046020526040902054600160a01b900465ffffffffffff1615611edd5780611ebf82610cb0565b6040516331b75e4d60e01b8152610d17929190600090600401613dad565b60006001611ee9611173565b65ffffffffffff16611efb9190613e82565b90506000600a600084815260046020526040902080546001600160a01b0319166001600160a01b038716178155909150611f3483611c5f565b815465ffffffffffff91909116600160a01b0265ffffffffffff60a01b19909116178155611f6182612c15565b815463ffffffff91909116600160d01b0263ffffffff60d01b1990911617815588517f7d84a6263ae0d98d3329bd7b46bb4e8d6f98cd35a7adb45c274c8b7fd5ebd5e090859087908c908c906001600160401b03811115611fc457611fc4613179565b604051908082528060200260200182016040528015611ff757816020015b6060815260200190600190039081611fe25790505b508c896120048a82613e82565b8e60405161201a99989796959493929190613e95565b60405180910390a150505095945050505050565b60606108f17f00000000000000000000000000000000000000000000000000000000000000006000612c41565b60606108f17f00000000000000000000000000000000000000000000000000000000000000006001612c41565b60006108f143611c5f565b600061209d6115ae565b604051630748d63560e31b81526001600160a01b038681166004830152602482018690529190911690633a46b1a890604401602060405180830381865afa1580156120ec573d6000803e3d6000fd5b505050506040513d601f19601f820116820180604052508101906111ef9190613d45565b805460009080156121405761212a83611d15600184613bdc565b54600160301b90046001600160d01b03166111f2565b60009392505050565b600954604080516001600160a01b03928316815291831660208301527f08f74ea46ef7894f65eabfb5e6e695de773a000b47c529ab559178069b226401910160405180910390a1600980546001600160a01b0319166001600160a01b0392909216919091179055565b6060826121c7576121c282612cec565b610942565b5080610942565b80546000906001600160801b0380821691600160801b90041681036121f7576121f7603161241d565b6001600160801b038181166000908152600185810160205260408220805492905585546001600160801b0319169301909116919091179092555090565b60006001600160d01b03821115611c8d5760d0826040516306dfcc6560e41b8152600401610d17929190613e6f565b600080612271858585612d15565b915091505b935093915050565b600080600960009054906101000a90046001600160a01b03166001600160a01b031663f27a0c926040518163ffffffff1660e01b8152600401602060405180830381865afa1580156122d4573d6000803e3d6000fd5b505050506040513d601f19601f820116820180604052508101906122f89190613d45565b9050600061230584612e69565b60095460405163b1c5f42760e01b81529192506001600160a01b03169063b1c5f4279061233f908a908a908a906000908890600401613f6c565b602060405180830381865afa15801561235c573d6000803e3d6000fd5b505050506040513d601f19601f820116820180604052508101906123809190613d45565b6000898152600a60205260408082209290925560095491516308f2a0bb60e41b81526001600160a01b0390921691638f2a0bb0916123cb918b918b918b919088908a90600401613fba565b600060405180830381600087803b1580156123e557600080fd5b505af11580156123f9573d6000803e3d6000fd5b50505050612411824261240c9190613e82565b611c5f565b98975050505050505050565b634e487b71600052806020526024601cfd5b6009546001600160a01b031663e38335e534868686600061244f88612e69565b6040518763ffffffff1660e01b815260040161246f959493929190613f6c565b6000604051808303818588803b15801561248857600080fd5b505af115801561249c573d6000803e3d6000fd5b50505060009687525050600a602052505060408320929092555050565b6000818152600460205260408120805460ff600160f01b8204811691600160f81b90041681156124ee57506007949350505050565b80156124ff57506002949350505050565b600061250a86610c8f565b90508060000361253057604051636ad0607560e01b815260048101879052602401610d17565b600061253a611173565b65ffffffffffff169050808210612558575060009695505050505050565b60006125638861130d565b905081811061257a57506001979650505050505050565b61258388612e7b565b15806125a357506000888152600760205260409020805460019091015411155b156125b657506003979650505050505050565b6125bf8861122d565b6000036125d457506004979650505050505050565b506005979650505050505050565b6000806125f186868686612eb2565b6000818152600a60205260409020549091508015610b115760095460405163c4d252f560e01b8152600481018390526001600160a01b039091169063c4d252f590602401600060405180830381600087803b15801561264f57600080fd5b505af1158015612663573d6000803e3d6000fd5b5050506000838152600a602052604081205550509050949350505050565b6000306001600160a01b037f0000000000000000000000000000000000000000000000000000000000000000161480156126da57507f000000000000000000000000000000000000000000000000000000000000000046145b1561270457507f000000000000000000000000000000000000000000000000000000000000000090565b6108f1604080517f8b73c3c69bb8fe3d512ecc4cf759cc79239f7b179b0ffacaa9a75d522b39400f60208201527f0000000000000000000000000000000000000000000000000000000000000000918101919091527f000000000000000000000000000000000000000000000000000000000000000060608201524660808201523060a082015260009060c00160405160208183030381529060405280519060200120905090565b600080600083516041036127e65760208401516040850151606086015160001a6127d888828585612f63565b9550955095505050506127f2565b50508151600091506002905b9250925092565b6000806000856001600160a01b0316858560405160240161281b929190614012565b60408051601f198184030181529181526020820180516001600160e01b0316630b135d3f60e11b179052516128509190613dcf565b600060405180830381855afa9150503d806000811461288b576040519150601f19603f3d011682016040523d82523d6000602084013e612890565b606091505b50915091508180156128a457506020815110155b8015610d2c57508051630b135d3f60e11b906128c99083016020908101908401613d45565b149695505050505050565b60008581526007602090815260408083206001600160a01b03881684526003810190925282205460ff161561291e57856040516371c6af4960e01b8152600401610d179190613150565b6001600160a01b03861660009081526003820160205260409020805460ff1916600117905560ff851661296a578381600001600082825461295f9190613e82565b909155506129c39050565b60001960ff86160161298a578381600101600082825461295f9190613e82565b60011960ff8616016129aa578381600201600082825461295f9190613e82565b6040516303599be160e11b815260040160405180910390fd5b509195945050505050565b6000600182116129dc575090565b816001600160801b82106129f55760809190911c9060401b5b600160401b8210612a0b5760409190911c9060201b5b600160201b8210612a215760209190911c9060101b5b620100008210612a365760109190911c9060081b5b6101008210612a4a5760089190911c9060041b5b60108210612a5d5760049190911c9060021b5b60048210612a695760011b5b600302600190811c90818581612a8157612a81613d75565b048201901c90506001818581612a9957612a99613d75565b048201901c90506001818581612ab157612ab1613d75565b048201901c90506001818581612ac957612ac9613d75565b048201901c90506001818581612ae157612ae1613d75565b048201901c90506001818581612af957612af9613d75565b048201901c9050612b18818581612b1257612b12613d75565b04821190565b90039392505050565b60005b81831015612b7b576000612b388484613028565b60008781526020902090915065ffffffffffff86169082015465ffffffffffff161115612b6757809250612b75565b612b72816001613e82565b93505b50612b24565b509392505050565b60008060f883901c602f81118015612b9e5750603a8160ff16105b15612bb357600194602f199091019350915050565b8060ff166040108015612bc9575060478160ff16105b15612bde576001946036199091019350915050565b8060ff166060108015612bf4575060678160ff16105b15612c09576001946056199091019350915050565b50600093849350915050565b600063ffffffff821115611c8d576020826040516306dfcc6560e41b8152600401610d17929190613e6f565b606060ff8314612c5b57612c5483613043565b9050610942565b818054612c6790613ae0565b80601f0160208091040260200160405190810160405280929190818152602001828054612c9390613ae0565b8015612ce05780601f10612cb557610100808354040283529160200191612ce0565b820191906000526020600020905b815481529060010190602001808311612cc357829003601f168201915b50505050509050610942565b805115612cfc5780518082602001fd5b60405163d6bda27560e01b815260040160405180910390fd5b825460009081908015612e0e576000612d3387611d15600185613bdc565b805490915065ffffffffffff80821691600160301b90046001600160d01b0316908816821115612d7657604051632520601d60e01b815260040160405180910390fd5b8765ffffffffffff168265ffffffffffff1603612daf57825465ffffffffffff16600160301b6001600160d01b03891602178355612e00565b6040805180820190915265ffffffffffff808a1682526001600160d01b03808a1660208085019182528d54600181018f5560008f81529190912094519151909216600160301b029216919091179101555b945085935061227692505050565b50506040805180820190915265ffffffffffff80851682526001600160d01b0380851660208085019182528854600181018a5560008a815291822095519251909316600160301b029190931617920191909155905081612276565b6001600160601b03193060601b161890565b600081815260076020526040812060028101546001820154612e9d9190613e82565b612ea96108cd85610c8f565b11159392505050565b600080612ec186868686611469565b9050612f0f81612ed160076116e2565b612edb60066116e2565b612ee560026116e2565b6001612ef260078261402b565b612efd906002614128565b612f079190613bdc565b181818611705565b506000818152600460205260409081902080546001600160f81b0316600160f81b179055517f789cf55be980739dad1d0699b93b58e806b51c9d96619bfa8fe0a28abaa7b30c90610c7e9083815260200190565b600080806fa2a8918ca85bafe22016d0b997e4df60600160ff1b03841115612f94575060009150600390508261301e565b604080516000808252602082018084528a905260ff891692820192909252606081018790526080810186905260019060a0016020604051602081039080840390855afa158015612fe8573d6000803e3d6000fd5b5050604051601f1901519150506001600160a01b0381166130145750600092506001915082905061301e565b9250600091508190505b9450945094915050565b60006130376002848418613d8b565b6111f290848416613e82565b6060600061305083613082565b604080516020808252818301909252919250600091906020820181803683375050509182525060208101929092525090565b600060ff8216601f81111561094257604051632cd44ac360e21b815260040160405180910390fd5b6000602082840312156130bc57600080fd5b81356001600160e01b0319811681146111f257600080fd5b6000602082840312156130e657600080fd5b5035919050565b60005b838110156131085781810151838201526020016130f0565b50506000910152565b600081518084526131298160208601602086016130ed565b601f01601f19169290920160200192915050565b6020815260006111f26020830184613111565b6001600160a01b0391909116815260200190565b6001600160a01b038116811461095957600080fd5b634e487b7160e01b600052604160045260246000fd5b604051601f8201601f191681016001600160401b03811182821017156131b7576131b7613179565b604052919050565b60006001600160401b038211156131d8576131d8613179565b50601f01601f191660200190565b60006131f96131f4846131bf565b61318f565b905082815283838301111561320d57600080fd5b828260208301376000602084830101529392505050565b600082601f83011261323557600080fd5b6111f2838335602085016131e6565b6000806000806080858703121561325a57600080fd5b843561326581613164565b9350602085013561327581613164565b92506040850135915060608501356001600160401b0381111561329757600080fd5b6132a387828801613224565b91505092959194509250565b60006001600160401b038211156132c8576132c8613179565b5060051b60200190565b600082601f8301126132e357600080fd5b813560206132f36131f4836132af565b82815260059290921b8401810191818101908684111561331257600080fd5b8286015b8481101561333657803561332981613164565b8352918301918301613316565b509695505050505050565b600082601f83011261335257600080fd5b813560206133626131f4836132af565b82815260059290921b8401810191818101908684111561338157600080fd5b8286015b848110156133365780358352918301918301613385565b600082601f8301126133ad57600080fd5b813560206133bd6131f4836132af565b82815260059290921b840181019181810190868411156133dc57600080fd5b8286015b848110156133365780356001600160401b038111156133ff5760008081fd5b61340d8986838b0101613224565b8452509183019183016133e0565b6000806000806080858703121561343157600080fd5b84356001600160401b038082111561344857600080fd5b613454888389016132d2565b9550602087013591508082111561346a57600080fd5b61347688838901613341565b9450604087013591508082111561348c57600080fd5b506134998782880161339c565b949793965093946060013593505050565b634e487b7160e01b600052602160045260246000fd5b600881106134de57634e487b7160e01b600052602160045260246000fd5b9052565b6020810161094282846134c0565b6000806040838503121561350357600080fd5b82359150602083013561351581613164565b809150509250929050565b9283526020830191909152604082015260600190565b803560ff81168114610dda57600080fd5b6000806040838503121561355a57600080fd5b8235915061356a60208401613536565b90509250929050565b60008083601f84011261358557600080fd5b5081356001600160401b0381111561359c57600080fd5b6020830191508360208285010111156135b457600080fd5b9250929050565b600080600080600080600060c0888a0312156135d657600080fd5b873596506135e660208901613536565b955060408801356135f681613164565b945060608801356001600160401b038082111561361257600080fd5b61361e8b838c01613573565b909650945060808a013591508082111561363757600080fd5b6136438b838c01613224565b935060a08a013591508082111561365957600080fd5b506136668a828b01613224565b91505092959891949750929550565b60008060008060006080868803121561368d57600080fd5b8535945061369d60208701613536565b935060408601356001600160401b03808211156136b957600080fd5b6136c589838a01613573565b909550935060608801359150808211156136de57600080fd5b506136eb88828901613224565b9150509295509295909350565b6000806000806060858703121561370e57600080fd5b8435935061371e60208601613536565b925060408501356001600160401b0381111561373957600080fd5b61374587828801613573565b95989497509550505050565b6000806000806080858703121561376757600080fd5b84356001600160401b038082111561377e57600080fd5b61378a888389016132d2565b955060208701359150808211156137a057600080fd5b6137ac88838901613341565b945060408701359150808211156137c257600080fd5b6137ce8883890161339c565b935060608701359150808211156137e457600080fd5b508501601f810187136137f657600080fd5b6132a3878235602084016131e6565b60006020828403121561381757600080fd5b81356111f281613164565b600081518084526020808501945080840160005b8381101561385257815187529582019590820190600101613836565b509495945050505050565b60ff60f81b8816815260e06020820152600061387c60e0830189613111565b828103604084015261388e8189613111565b606084018890526001600160a01b038716608085015260a0840186905283810360c085015290506138bf8185613822565b9a9950505050505050505050565b600080600080608085870312156138e357600080fd5b843593506138f360208601613536565b9250604085013561390381613164565b915060608501356001600160401b0381111561329757600080fd5b60008060006060848603121561393357600080fd5b833561393e81613164565b92506020840135915060408401356001600160401b0381111561396057600080fd5b61396c86828701613224565b9150509250925092565b600080600080600060a0868803121561398e57600080fd5b853561399981613164565b945060208601356139a981613164565b935060408601356001600160401b03808211156139c557600080fd5b6139d189838a01613341565b945060608801359150808211156139e757600080fd5b6139f389838a01613341565b935060808801359150808211156136de57600080fd5b60008060008060608587031215613a1f57600080fd5b8435613a2a81613164565b93506020850135925060408501356001600160401b0381111561373957600080fd5b60008060408385031215613a5f57600080fd5b8235613a6a81613164565b946020939093013593505050565b600080600080600060a08688031215613a9057600080fd5b8535613a9b81613164565b94506020860135613aab81613164565b9350604086013592506060860135915060808601356001600160401b03811115613ad457600080fd5b6136eb88828901613224565b600181811c90821680613af457607f821691505b602082108103613b1457634e487b7160e01b600052602260045260246000fd5b50919050565b634e487b7160e01b600052603260045260246000fd5b634e487b7160e01b600052601160045260246000fd5b600060018201613b5857613b58613b30565b5060010190565b600060208284031215613b7157600080fd5b81516001600160401b03811115613b8757600080fd5b8201601f81018413613b9857600080fd5b8051613ba66131f4826131bf565b818152856020838501011115613bbb57600080fd5b611a8d8260208301602086016130ed565b8183823760009101908152919050565b8181038181111561094257610942613b30565b5092915050565b600060208284031215613c0857600080fd5b815165ffffffffffff811681146111f257600080fd5b65ffffffffffff818116838216019080821115613bef57613bef613b30565b60208082526015908201527410d95c9d0818dbdb9d1c9858dd081b9bdd081cd95d605a1b604082015260600190565b600081518084526020808501945080840160005b838110156138525781516001600160a01b031687529582019590820190600101613c80565b600081518084526020808501808196508360051b8101915082860160005b85811015613ced578284038952613cdb848351613111565b98850198935090840190600101613cc3565b5091979650505050505050565b608081526000613d0d6080830187613c6c565b8281036020840152613d1f8187613822565b90508281036040840152613d338186613ca5565b91505082606083015295945050505050565b600060208284031215613d5757600080fd5b5051919050565b808202811582820484141761094257610942613b30565b634e487b7160e01b600052601260045260246000fd5b600082613da857634e487b7160e01b600052601260045260246000fd5b500490565b83815260608101613dc160208301856134c0565b826040830152949350505050565b60008251613de18184602087016130ed565b9190910192915050565b600060208284031215613dfd57600080fd5b815180151581146111f257600080fd5b84815260ff84166020820152826040820152608060608201526000610d2c6080830184613111565b85815260ff8516602082015283604082015260a060608201526000613e5d60a0830185613111565b82810360808401526124118185613111565b60ff929092168252602082015260400190565b8082018082111561094257610942613b30565b60006101208b8352602060018060a01b038c1681850152816040850152613ebe8285018c613c6c565b91508382036060850152613ed2828b613822565b915083820360808501528189518084528284019150828160051b850101838c0160005b83811015613f2357601f19878403018552613f11838351613111565b94860194925090850190600101613ef5565b505086810360a0880152613f37818c613ca5565b9450505050508560c08401528460e0840152828103610100840152613f5c8185613111565b9c9b505050505050505050505050565b60a081526000613f7f60a0830188613c6c565b8281036020840152613f918188613822565b90508281036040840152613fa58187613ca5565b60608401959095525050608001529392505050565b60c081526000613fcd60c0830189613c6c565b8281036020840152613fdf8189613822565b90508281036040840152613ff38188613ca5565b60608401969096525050608081019290925260a0909101529392505050565b8281526040602082015260006111ef6040830184613111565b60ff818116838216019081111561094257610942613b30565b600181815b8085111561407f57816000190482111561406557614065613b30565b8085161561407257918102915b93841c9390800290614049565b509250929050565b60008261409657506001610942565b816140a357506000610942565b81600181146140b957600281146140c3576140df565b6001915050610942565b60ff8411156140d4576140d4613b30565b50506001821b610942565b5060208310610133831016604e8410600b8410161715614102575081810a610942565b61410c8383614044565b806000190482111561412057614120613b30565b029392505050565b60006111f260ff84168361408756fef2aad550cf55f045cb27e9c559f9889fdfb6e6cdaa032301d6ea397784ae51d73e83946653575f9a39005e1545185629e92736b7528ab20ca3816f315424a811a2646970667358221220bb2aef88abccf1ac1f7aeaae3e36dee8c95cf19bc333890fc36e0fb22f77e19c64736f6c63430008140033",
  "linkReferences": {},
  "deployedLinkReferences": {}
}